{
	"data": {
		"bytecode": {
			"linkReferences": {},
			"object": "60a06040525f60065f6101000a81548160ff021916908315150217905550348015610028575f5ffd5b50604051612ac2380380612ac2833981810160405281019061004a919061033f565b835f908161005891906105e2565b50826001908161006891906105e2565b508160025f6101000a81548160ff021916908360ff16021790555081600a610090919061080d565b8161009b9190610857565b6003819055503373ffffffffffffffffffffffffffffffffffffffff1660808173ffffffffffffffffffffffffffffffffffffffff168152505060035460045f3373ffffffffffffffffffffffffffffffffffffffff1673ffffffffffffffffffffffffffffffffffffffff1681526020019081526020015f20819055503373ffffffffffffffffffffffffffffffffffffffff165f73ffffffffffffffffffffffffffffffffffffffff167fddf252ad1be2c89b69c2b068fc378daa952ba7f163c4a11628f55a4df523b3ef60035460405161017891906108a7565b60405180910390a3505050506108c0565b5f604051905090565b5f5ffd5b5f5ffd5b5f5ffd5b5f5ffd5b5f601f19601f8301169050919050565b7f4e487b71000000000000000000000000000000000000000000000000000000005f52604160045260245ffd5b6101e8826101a2565b810181811067ffffffffffffffff82111715610207576102066101b2565b5b80604052505050565b5f610219610189565b905061022582826101df565b919050565b5f67ffffffffffffffff821115610244576102436101b2565b5b61024d826101a2565b9050602081019050919050565b8281835e5f83830152505050565b5f61027a6102758461022a565b610210565b9050828152602081018484840111156102965761029561019e565b5b6102a184828561025a565b509392505050565b5f82601f8301126102bd576102bc61019a565b5b81516102cd848260208601610268565b91505092915050565b5f60ff82169050919050565b6102eb816102d6565b81146102f5575f5ffd5b50565b5f81519050610306816102e2565b92915050565b5f819050919050565b61031e8161030c565b8114610328575f5ffd5b50565b5f8151905061033981610315565b92915050565b5f5f5f5f6080858703121561035757610356610192565b5b5f85015167ffffffffffffffff81111561037457610373610196565b5b610380878288016102a9565b945050602085015167ffffffffffffffff8111156103a1576103a0610196565b5b6103ad878288016102a9565b93505060406103be878288016102f8565b92505060606103cf8782880161032b565b91505092959194509250565b5f81519050919050565b7f4e487b71000000000000000000000000000000000000000000000000000000005f52602260045260245ffd5b5f600282049050600182168061042957607f821691505b60208210810361043c5761043b6103e5565b5b50919050565b5f819050815f5260205f209050919050565b5f6020601f8301049050919050565b5f82821b905092915050565b5f6008830261049e7fffffffffffffffffffffffffffffffffffffffffffffffffffffffffffffffff82610463565b6104a88683610463565b95508019841693508086168417925050509392505050565b5f819050919050565b5f6104e36104de6104d98461030c565b6104c0565b61030c565b9050919050565b5f819050919050565b6104fc836104c9565b610510610508826104ea565b84845461046f565b825550505050565b5f5f905090565b610527610518565b6105328184846104f3565b505050565b5b818110156105555761054a5f8261051f565b600181019050610538565b5050565b601f82111561059a5761056b81610442565b61057484610454565b81016020851015610583578190505b61059761058f85610454565b830182610537565b50505b505050565b5f82821c905092915050565b5f6105ba5f198460080261059f565b1980831691505092915050565b5f6105d283836105ab565b9150826002028217905092915050565b6105eb826103db565b67ffffffffffffffff811115610604576106036101b2565b5b61060e8254610412565b610619828285610559565b5f60209050601f83116001811461064a575f8415610638578287015190505b61064285826105c7565b8655506106a9565b601f19841661065886610442565b5f5b8281101561067f5784890151825560018201915060208501945060208101905061065a565b8683101561069c5784890151610698601f8916826105ab565b8355505b6001600288020188555050505b505050505050565b7f4e487b71000000000000000000000000000000000000000000000000000000005f52601160045260245ffd5b5f8160011c9050919050565b5f5f8291508390505b60018511156107335780860481111561070f5761070e6106b1565b5b600185161561071e5780820291505b808102905061072c856106de565b94506106f3565b94509492505050565b5f8261074b5760019050610806565b81610758575f9050610806565b816001811461076e5760028114610778576107a7565b6001915050610806565b60ff84111561078a576107896106b1565b5b8360020a9150848211156107a1576107a06106b1565b5b50610806565b5060208310610133831016604e8410600b84101617156107dc5782820a9050838111156107d7576107d66106b1565b5b610806565b6107e984848460016106ea565b92509050818404811115610800576107ff6106b1565b5b81810290505b9392505050565b5f6108178261030c565b9150610822836102d6565b925061084f7fffffffffffffffffffffffffffffffffffffffffffffffffffffffffffffffff848461073c565b905092915050565b5f6108618261030c565b915061086c8361030c565b925082820261087a8161030c565b91508282048414831517610891576108906106b1565b5b5092915050565b6108a18161030c565b82525050565b5f6020820190506108ba5f830184610898565b92915050565b6080516121d56108ed5f395f81816109aa01528181610a5301528181610d9d015261129c01526121d55ff3fe608060405234801561000f575f5ffd5b5060043610610109575f3560e01c806342966c68116100a057806388d695b21161006f57806388d695b21461027f5780638da5cb5b146102af57806395d89b41146102cd578063a9059cbb146102eb578063dd62ed3e1461031b57610109565b806342966c681461020b5780635c975abb1461022757806370a08231146102455780638456cb591461027557610109565b8063295d0ee8116100dc578063295d0ee8146101a9578063313ce567146101c75780633f4ba83a146101e557806340c10f19146101ef57610109565b806306fdde031461010d578063095ea7b31461012b57806318160ddd1461015b57806323b872dd14610179575b5f5ffd5b61011561034b565b604051610122919061162d565b60405180910390f35b610145600480360381019061014091906116eb565b6103d6565b6040516101529190611743565b60405180910390f35b610163610580565b604051610170919061176b565b60405180910390f35b610193600480360381019061018e9190611784565b610586565b6040516101a09190611743565b60405180910390f35b6101b1610991565b6040516101be919061176b565b60405180910390f35b6101cf610996565b6040516101dc91906117ef565b60405180910390f35b6101ed6109a8565b005b610209600480360381019061020491906116eb565b610a51565b005b61022560048036038101906102209190611808565b610c21565b005b61022f610d74565b60405161023c9190611743565b60405180910390f35b61025f600480360381019061025a9190611833565b610d86565b60405161026c919061176b565b60405180910390f35b61027d610d9b565b005b61029960048036038101906102949190611a5e565b610e45565b6040516102a69190611743565b60405180910390f35b6102b761129a565b6040516102c49190611ae3565b60405180910390f35b6102d56112be565b6040516102e2919061162d565b60405180910390f35b610305600480360381019061030091906116eb565b61134a565b6040516103129190611743565b60405180910390f35b61033560048036038101906103309190611afc565b61159d565b604051610342919061176b565b60405180910390f35b5f805461035790611b67565b80601f016020809104026020016040519081016040528092919081815260200182805461038390611b67565b80156103ce5780601f106103a5576101008083540402835291602001916103ce565b820191905f5260205f20905b8154815290600101906020018083116103b157829003601f168201915b505050505081565b5f60065f9054906101000a900460ff1615610426576040517f08c379a000000000000000000000000000000000000000000000000000000000815260040161041d90611be1565b60405180910390fd5b5f73ffffffffffffffffffffffffffffffffffffffff168373ffffffffffffffffffffffffffffffffffffffff1603610494576040517f08c379a000000000000000000000000000000000000000000000000000000000815260040161048b90611c49565b60405180910390fd5b8160055f3373ffffffffffffffffffffffffffffffffffffffff1673ffffffffffffffffffffffffffffffffffffffff1681526020019081526020015f205f8573ffffffffffffffffffffffffffffffffffffffff1673ffffffffffffffffffffffffffffffffffffffff1681526020019081526020015f20819055508273ffffffffffffffffffffffffffffffffffffffff163373ffffffffffffffffffffffffffffffffffffffff167f8c5be1e5ebec7d5bd14f71427d1e84f3dd0314c0f7b2291e5b200ac8c7c3b9258460405161056e919061176b565b60405180910390a36001905092915050565b60035481565b5f60065f9054906101000a900460ff16156105d6576040517f08c379a00000000000000000000000000000000000000000000000000000000081526004016105cd90611be1565b60405180910390fd5b5f73ffffffffffffffffffffffffffffffffffffffff168473ffffffffffffffffffffffffffffffffffffffff1603610644576040517f08c379a000000000000000000000000000000000000000000000000000000000815260040161063b90611cb1565b60405180910390fd5b5f73ffffffffffffffffffffffffffffffffffffffff168373ffffffffffffffffffffffffffffffffffffffff16036106b2576040517f08c379a00000000000000000000000000000000000000000000000000000000081526004016106a990611d19565b60405180910390fd5b8160045f8673ffffffffffffffffffffffffffffffffffffffff1673ffffffffffffffffffffffffffffffffffffffff1681526020019081526020015f20541015610732576040517f08c379a000000000000000000000000000000000000000000000000000000000815260040161072990611d81565b60405180910390fd5b8160055f8673ffffffffffffffffffffffffffffffffffffffff1673ffffffffffffffffffffffffffffffffffffffff1681526020019081526020015f205f3373ffffffffffffffffffffffffffffffffffffffff1673ffffffffffffffffffffffffffffffffffffffff1681526020019081526020015f205410156107ed576040517f08c379a00000000000000000000000000000000000000000000000000000000081526004016107e490611de9565b60405180910390fd5b8160045f8673ffffffffffffffffffffffffffffffffffffffff1673ffffffffffffffffffffffffffffffffffffffff1681526020019081526020015f205f8282546108399190611e34565b925050819055508160045f8573ffffffffffffffffffffffffffffffffffffffff1673ffffffffffffffffffffffffffffffffffffffff1681526020019081526020015f205f82825461088c9190611e67565b925050819055508160055f8673ffffffffffffffffffffffffffffffffffffffff1673ffffffffffffffffffffffffffffffffffffffff1681526020019081526020015f205f3373ffffffffffffffffffffffffffffffffffffffff1673ffffffffffffffffffffffffffffffffffffffff1681526020019081526020015f205f82825461091a9190611e34565b925050819055508273ffffffffffffffffffffffffffffffffffffffff168473ffffffffffffffffffffffffffffffffffffffff167fddf252ad1be2c89b69c2b068fc378daa952ba7f163c4a11628f55a4df523b3ef8460405161097e919061176b565b60405180910390a3600190509392505050565b603281565b60025f9054906101000a900460ff1681565b7f000000000000000000000000000000000000000000000000000000000000000073ffffffffffffffffffffffffffffffffffffffff163373ffffffffffffffffffffffffffffffffffffffff1614610a36576040517f08c379a0000000000000000000000000000000000000000000000000000000008152600401610a2d90611ee4565b60405180910390fd5b5f60065f6101000a81548160ff021916908315150217905550565b7f000000000000000000000000000000000000000000000000000000000000000073ffffffffffffffffffffffffffffffffffffffff163373ffffffffffffffffffffffffffffffffffffffff1614610adf576040517f08c379a0000000000000000000000000000000000000000000000000000000008152600401610ad690611ee4565b60405180910390fd5b5f73ffffffffffffffffffffffffffffffffffffffff168273ffffffffffffffffffffffffffffffffffffffff1603610b4d576040517f08c379a0000000000000000000000000000000000000000000000000000000008152600401610b4490611f4c565b60405180910390fd5b8060035f828254610b5e9190611e67565b925050819055508060045f8473ffffffffffffffffffffffffffffffffffffffff1673ffffffffffffffffffffffffffffffffffffffff1681526020019081526020015f205f828254610bb19190611e67565b925050819055508173ffffffffffffffffffffffffffffffffffffffff165f73ffffffffffffffffffffffffffffffffffffffff167fddf252ad1be2c89b69c2b068fc378daa952ba7f163c4a11628f55a4df523b3ef83604051610c15919061176b565b60405180910390a35050565b8060045f3373ffffffffffffffffffffffffffffffffffffffff1673ffffffffffffffffffffffffffffffffffffffff1681526020019081526020015f20541015610ca1576040517f08c379a0000000000000000000000000000000000000000000000000000000008152600401610c9890611d81565b60405180910390fd5b8060035f828254610cb29190611e34565b925050819055508060045f3373ffffffffffffffffffffffffffffffffffffffff1673ffffffffffffffffffffffffffffffffffffffff1681526020019081526020015f205f828254610d059190611e34565b925050819055505f73ffffffffffffffffffffffffffffffffffffffff163373ffffffffffffffffffffffffffffffffffffffff167fddf252ad1be2c89b69c2b068fc378daa952ba7f163c4a11628f55a4df523b3ef83604051610d69919061176b565b60405180910390a350565b60065f9054906101000a900460ff1681565b6004602052805f5260405f205f915090505481565b7f000000000000000000000000000000000000000000000000000000000000000073ffffffffffffffffffffffffffffffffffffffff163373ffffffffffffffffffffffffffffffffffffffff1614610e29576040517f08c379a0000000000000000000000000000000000000000000000000000000008152600401610e2090611ee4565b60405180910390fd5b600160065f6101000a81548160ff021916908315150217905550565b5f60065f9054906101000a900460ff1615610e95576040517f08c379a0000000000000000000000000000000000000000000000000000000008152600401610e8c90611be1565b60405180910390fd5b8151835114610ed9576040517f08c379a0000000000000000000000000000000000000000000000000000000008152600401610ed090611fb4565b60405180910390fd5b603283511115610f1e576040517f08c379a0000000000000000000000000000000000000000000000000000000008152600401610f159061201c565b60405180910390fd5b5f5f90505f5f90505b8351811015610f6557838181518110610f4357610f4261203a565b5b602002602001015182610f569190611e67565b91508080600101915050610f27565b508060045f3373ffffffffffffffffffffffffffffffffffffffff1673ffffffffffffffffffffffffffffffffffffffff1681526020019081526020015f20541015610fe6576040517f08c379a0000000000000000000000000000000000000000000000000000000008152600401610fdd90611d81565b60405180910390fd5b5f5f90505b84518110156110e5575f73ffffffffffffffffffffffffffffffffffffffff1685828151811061101e5761101d61203a565b5b602002602001015173ffffffffffffffffffffffffffffffffffffffff160361107c576040517f08c379a0000000000000000000000000000000000000000000000000000000008152600401611073906120b1565b60405180910390fd5b5f8482815181106110905761108f61203a565b5b6020026020010151116110d8576040517f08c379a00000000000000000000000000000000000000000000000000000000081526004016110cf90612119565b60405180910390fd5b8080600101915050610feb565b505f5f90505b845181101561128e578381815181106111075761110661203a565b5b602002602001015160045f3373ffffffffffffffffffffffffffffffffffffffff1673ffffffffffffffffffffffffffffffffffffffff1681526020019081526020015f205f82825461115a9190611e34565b925050819055508381815181106111745761117361203a565b5b602002602001015160045f8784815181106111925761119161203a565b5b602002602001015173ffffffffffffffffffffffffffffffffffffffff1673ffffffffffffffffffffffffffffffffffffffff1681526020019081526020015f205f8282546111e19190611e67565b925050819055508481815181106111fb576111fa61203a565b5b602002602001015173ffffffffffffffffffffffffffffffffffffffff163373ffffffffffffffffffffffffffffffffffffffff167fddf252ad1be2c89b69c2b068fc378daa952ba7f163c4a11628f55a4df523b3ef8684815181106112645761126361203a565b5b6020026020010151604051611279919061176b565b60405180910390a380806001019150506110eb565b50600191505092915050565b7f000000000000000000000000000000000000000000000000000000000000000081565b600180546112cb90611b67565b80601f01602080910402602001604051908101604052809291908181526020018280546112f790611b67565b80156113425780601f1061131957610100808354040283529160200191611342565b820191905f5260205f20905b81548152906001019060200180831161132557829003601f168201915b505050505081565b5f60065f9054906101000a900460ff161561139a576040517f08c379a000000000000000000000000000000000000000000000000000000000815260040161139190611be1565b60405180910390fd5b5f73ffffffffffffffffffffffffffffffffffffffff168373ffffffffffffffffffffffffffffffffffffffff1603611408576040517f08c379a00000000000000000000000000000000000000000000000000000000081526004016113ff90612181565b60405180910390fd5b8160045f3373ffffffffffffffffffffffffffffffffffffffff1673ffffffffffffffffffffffffffffffffffffffff1681526020019081526020015f20541015611488576040517f08c379a000000000000000000000000000000000000000000000000000000000815260040161147f90611d81565b60405180910390fd5b8160045f3373ffffffffffffffffffffffffffffffffffffffff1673ffffffffffffffffffffffffffffffffffffffff1681526020019081526020015f205f8282546114d49190611e34565b925050819055508160045f8573ffffffffffffffffffffffffffffffffffffffff1673ffffffffffffffffffffffffffffffffffffffff1681526020019081526020015f205f8282546115279190611e67565b925050819055508273ffffffffffffffffffffffffffffffffffffffff163373ffffffffffffffffffffffffffffffffffffffff167fddf252ad1be2c89b69c2b068fc378daa952ba7f163c4a11628f55a4df523b3ef8460405161158b919061176b565b60405180910390a36001905092915050565b6005602052815f5260405f20602052805f5260405f205f91509150505481565b5f81519050919050565b5f82825260208201905092915050565b8281835e5f83830152505050565b5f601f19601f8301169050919050565b5f6115ff826115bd565b61160981856115c7565b93506116198185602086016115d7565b611622816115e5565b840191505092915050565b5f6020820190508181035f83015261164581846115f5565b905092915050565b5f604051905090565b5f5ffd5b5f5ffd5b5f73ffffffffffffffffffffffffffffffffffffffff82169050919050565b5f6116878261165e565b9050919050565b6116978161167d565b81146116a1575f5ffd5b50565b5f813590506116b28161168e565b92915050565b5f819050919050565b6116ca816116b8565b81146116d4575f5ffd5b50565b5f813590506116e5816116c1565b92915050565b5f5f6040838503121561170157611700611656565b5b5f61170e858286016116a4565b925050602061171f858286016116d7565b9150509250929050565b5f8115159050919050565b61173d81611729565b82525050565b5f6020820190506117565f830184611734565b92915050565b611765816116b8565b82525050565b5f60208201905061177e5f83018461175c565b92915050565b5f5f5f6060848603121561179b5761179a611656565b5b5f6117a8868287016116a4565b93505060206117b9868287016116a4565b92505060406117ca868287016116d7565b9150509250925092565b5f60ff82169050919050565b6117e9816117d4565b82525050565b5f6020820190506118025f8301846117e0565b92915050565b5f6020828403121561181d5761181c611656565b5b5f61182a848285016116d7565b91505092915050565b5f6020828403121561184857611847611656565b5b5f611855848285016116a4565b91505092915050565b5f5ffd5b7f4e487b71000000000000000000000000000000000000000000000000000000005f52604160045260245ffd5b611898826115e5565b810181811067ffffffffffffffff821117156118b7576118b6611862565b5b80604052505050565b5f6118c961164d565b90506118d5828261188f565b919050565b5f67ffffffffffffffff8211156118f4576118f3611862565b5b602082029050602081019050919050565b5f5ffd5b5f61191b611916846118da565b6118c0565b9050808382526020820190506020840283018581111561193e5761193d611905565b5b835b81811015611967578061195388826116a4565b845260208401935050602081019050611940565b5050509392505050565b5f82601f8301126119855761198461185e565b5b8135611995848260208601611909565b91505092915050565b5f67ffffffffffffffff8211156119b8576119b7611862565b5b602082029050602081019050919050565b5f6119db6119d68461199e565b6118c0565b905080838252602082019050602084028301858111156119fe576119fd611905565b5b835b81811015611a275780611a1388826116d7565b845260208401935050602081019050611a00565b5050509392505050565b5f82601f830112611a4557611a4461185e565b5b8135611a558482602086016119c9565b91505092915050565b5f5f60408385031215611a7457611a73611656565b5b5f83013567ffffffffffffffff811115611a9157611a9061165a565b5b611a9d85828601611971565b925050602083013567ffffffffffffffff811115611abe57611abd61165a565b5b611aca85828601611a31565b9150509250929050565b611add8161167d565b82525050565b5f602082019050611af65f830184611ad4565b92915050565b5f5f60408385031215611b1257611b11611656565b5b5f611b1f858286016116a4565b9250506020611b30858286016116a4565b9150509250929050565b7f4e487b71000000000000000000000000000000000000000000000000000000005f52602260045260245ffd5b5f6002820490506001821680611b7e57607f821691505b602082108103611b9157611b90611b3a565b5b50919050565b7f436f6e74726163742069732070617573656400000000000000000000000000005f82015250565b5f611bcb6012836115c7565b9150611bd682611b97565b602082019050919050565b5f6020820190508181035f830152611bf881611bbf565b9050919050565b7f43616e6e6f7420617070726f7665207a65726f206164647265737300000000005f82015250565b5f611c33601b836115c7565b9150611c3e82611bff565b602082019050919050565b5f6020820190508181035f830152611c6081611c27565b9050919050565b7f46726f6d207a65726f00000000000000000000000000000000000000000000005f82015250565b5f611c9b6009836115c7565b9150611ca682611c67565b602082019050919050565b5f6020820190508181035f830152611cc881611c8f565b9050919050565b7f546f207a65726f000000000000000000000000000000000000000000000000005f82015250565b5f611d036007836115c7565b9150611d0e82611ccf565b602082019050919050565b5f6020820190508181035f830152611d3081611cf7565b9050919050565b7f496e73756666696369656e742062616c616e63650000000000000000000000005f82015250565b5f611d6b6014836115c7565b9150611d7682611d37565b602082019050919050565b5f6020820190508181035f830152611d9881611d5f565b9050919050565b7f496e73756666696369656e7420616c6c6f77616e6365000000000000000000005f82015250565b5f611dd36016836115c7565b9150611dde82611d9f565b602082019050919050565b5f6020820190508181035f830152611e0081611dc7565b9050919050565b7f4e487b71000000000000000000000000000000000000000000000000000000005f52601160045260245ffd5b5f611e3e826116b8565b9150611e49836116b8565b9250828203905081811115611e6157611e60611e07565b5b92915050565b5f611e71826116b8565b9150611e7c836116b8565b9250828201905080821115611e9457611e93611e07565b5b92915050565b7f4f6e6c79206f776e65722063616e2063616c6c207468697300000000000000005f82015250565b5f611ece6018836115c7565b9150611ed982611e9a565b602082019050919050565b5f6020820190508181035f830152611efb81611ec2565b9050919050565b7f43616e6e6f74206d696e7420746f207a65726f206164647265737300000000005f82015250565b5f611f36601b836115c7565b9150611f4182611f02565b602082019050919050565b5f6020820190508181035f830152611f6381611f2a565b9050919050565b7f4c656e677468206d69736d6174636800000000000000000000000000000000005f82015250565b5f611f9e600f836115c7565b9150611fa982611f6a565b602082019050919050565b5f6020820190508181035f830152611fcb81611f92565b9050919050565b7f426174636820746f6f206c6172676500000000000000000000000000000000005f82015250565b5f612006600f836115c7565b915061201182611fd2565b602082019050919050565b5f6020820190508181035f83015261203381611ffa565b9050919050565b7f4e487b71000000000000000000000000000000000000000000000000000000005f52603260045260245ffd5b7f496e76616c6964206164647265737300000000000000000000000000000000005f82015250565b5f61209b600f836115c7565b91506120a682612067565b602082019050919050565b5f6020820190508181035f8301526120c88161208f565b9050919050565b7f496e76616c696420616d6f756e740000000000000000000000000000000000005f82015250565b5f612103600e836115c7565b915061210e826120cf565b602082019050919050565b5f6020820190508181035f830152612130816120f7565b9050919050565b7f43616e6e6f74207472616e7366657220746f207a65726f2061646472657373005f82015250565b5f61216b601f836115c7565b915061217682612137565b602082019050919050565b5f6020820190508181035f8301526121988161215f565b905091905056fea264697066735822122044df5abc34405254e5ed73d914d52b02dc67e676d5b728ea755c9fd2ae3ef92e64736f6c634300081e0033",
			"opcodes": "PUSH1 0xA0 PUSH1 0x40 MSTORE PUSH0 PUSH1 0x6 PUSH0 PUSH2 0x100 EXP DUP2 SLOAD DUP2 PUSH1 0xFF MUL NOT AND SWAP1 DUP4 ISZERO ISZERO MUL OR SWAP1 SSTORE POP CALLVALUE DUP1 ISZERO PUSH2 0x28 JUMPI PUSH0 PUSH0 REVERT JUMPDEST POP PUSH1 0x40 MLOAD PUSH2 0x2AC2 CODESIZE SUB DUP1 PUSH2 0x2AC2 DUP4 CODECOPY DUP2 DUP2 ADD PUSH1 0x40 MSTORE DUP2 ADD SWAP1 PUSH2 0x4A SWAP2 SWAP1 PUSH2 0x33F JUMP JUMPDEST DUP4 PUSH0 SWAP1 DUP2 PUSH2 0x58 SWAP2 SWAP1 PUSH2 0x5E2 JUMP JUMPDEST POP DUP3 PUSH1 0x1 SWAP1 DUP2 PUSH2 0x68 SWAP2 SWAP1 PUSH2 0x5E2 JUMP JUMPDEST POP DUP2 PUSH1 0x2 PUSH0 PUSH2 0x100 EXP DUP2 SLOAD DUP2 PUSH1 0xFF MUL NOT AND SWAP1 DUP4 PUSH1 0xFF AND MUL OR SWAP1 SSTORE POP DUP2 PUSH1 0xA PUSH2 0x90 SWAP2 SWAP1 PUSH2 0x80D JUMP JUMPDEST DUP2 PUSH2 0x9B SWAP2 SWAP1 PUSH2 0x857 JUMP JUMPDEST PUSH1 0x3 DUP2 SWAP1 SSTORE POP CALLER PUSH20 0xFFFFFFFFFFFFFFFFFFFFFFFFFFFFFFFFFFFFFFFF AND PUSH1 0x80 DUP2 PUSH20 0xFFFFFFFFFFFFFFFFFFFFFFFFFFFFFFFFFFFFFFFF AND DUP2 MSTORE POP POP PUSH1 0x3 SLOAD PUSH1 0x4 PUSH0 CALLER PUSH20 0xFFFFFFFFFFFFFFFFFFFFFFFFFFFFFFFFFFFFFFFF AND PUSH20 0xFFFFFFFFFFFFFFFFFFFFFFFFFFFFFFFFFFFFFFFF AND DUP2 MSTORE PUSH1 0x20 ADD SWAP1 DUP2 MSTORE PUSH1 0x20 ADD PUSH0 KECCAK256 DUP2 SWAP1 SSTORE POP CALLER PUSH20 0xFFFFFFFFFFFFFFFFFFFFFFFFFFFFFFFFFFFFFFFF AND PUSH0 PUSH20 0xFFFFFFFFFFFFFFFFFFFFFFFFFFFFFFFFFFFFFFFF AND PUSH32 0xDDF252AD1BE2C89B69C2B068FC378DAA952BA7F163C4A11628F55A4DF523B3EF PUSH1 0x3 SLOAD PUSH1 0x40 MLOAD PUSH2 0x178 SWAP2 SWAP1 PUSH2 0x8A7 JUMP JUMPDEST PUSH1 0x40 MLOAD DUP1 SWAP2 SUB SWAP1 LOG3 POP POP POP POP PUSH2 0x8C0 JUMP JUMPDEST PUSH0 PUSH1 0x40 MLOAD SWAP1 POP SWAP1 JUMP JUMPDEST PUSH0 PUSH0 REVERT JUMPDEST PUSH0 PUSH0 REVERT JUMPDEST PUSH0 PUSH0 REVERT JUMPDEST PUSH0 PUSH0 REVERT JUMPDEST PUSH0 PUSH1 0x1F NOT PUSH1 0x1F DUP4 ADD AND SWAP1 POP SWAP2 SWAP1 POP JUMP JUMPDEST PUSH32 0x4E487B7100000000000000000000000000000000000000000000000000000000 PUSH0 MSTORE PUSH1 0x41 PUSH1 0x4 MSTORE PUSH1 0x24 PUSH0 REVERT JUMPDEST PUSH2 0x1E8 DUP3 PUSH2 0x1A2 JUMP JUMPDEST DUP2 ADD DUP2 DUP2 LT PUSH8 0xFFFFFFFFFFFFFFFF DUP3 GT OR ISZERO PUSH2 0x207 JUMPI PUSH2 0x206 PUSH2 0x1B2 JUMP JUMPDEST JUMPDEST DUP1 PUSH1 0x40 MSTORE POP POP POP JUMP JUMPDEST PUSH0 PUSH2 0x219 PUSH2 0x189 JUMP JUMPDEST SWAP1 POP PUSH2 0x225 DUP3 DUP3 PUSH2 0x1DF JUMP JUMPDEST SWAP2 SWAP1 POP JUMP JUMPDEST PUSH0 PUSH8 0xFFFFFFFFFFFFFFFF DUP3 GT ISZERO PUSH2 0x244 JUMPI PUSH2 0x243 PUSH2 0x1B2 JUMP JUMPDEST JUMPDEST PUSH2 0x24D DUP3 PUSH2 0x1A2 JUMP JUMPDEST SWAP1 POP PUSH1 0x20 DUP2 ADD SWAP1 POP SWAP2 SWAP1 POP JUMP JUMPDEST DUP3 DUP2 DUP4 MCOPY PUSH0 DUP4 DUP4 ADD MSTORE POP POP POP JUMP JUMPDEST PUSH0 PUSH2 0x27A PUSH2 0x275 DUP5 PUSH2 0x22A JUMP JUMPDEST PUSH2 0x210 JUMP JUMPDEST SWAP1 POP DUP3 DUP2 MSTORE PUSH1 0x20 DUP2 ADD DUP5 DUP5 DUP5 ADD GT ISZERO PUSH2 0x296 JUMPI PUSH2 0x295 PUSH2 0x19E JUMP JUMPDEST JUMPDEST PUSH2 0x2A1 DUP5 DUP3 DUP6 PUSH2 0x25A JUMP JUMPDEST POP SWAP4 SWAP3 POP POP POP JUMP JUMPDEST PUSH0 DUP3 PUSH1 0x1F DUP4 ADD SLT PUSH2 0x2BD JUMPI PUSH2 0x2BC PUSH2 0x19A JUMP JUMPDEST JUMPDEST DUP2 MLOAD PUSH2 0x2CD DUP5 DUP3 PUSH1 0x20 DUP7 ADD PUSH2 0x268 JUMP JUMPDEST SWAP2 POP POP SWAP3 SWAP2 POP POP JUMP JUMPDEST PUSH0 PUSH1 0xFF DUP3 AND SWAP1 POP SWAP2 SWAP1 POP JUMP JUMPDEST PUSH2 0x2EB DUP2 PUSH2 0x2D6 JUMP JUMPDEST DUP2 EQ PUSH2 0x2F5 JUMPI PUSH0 PUSH0 REVERT JUMPDEST POP JUMP JUMPDEST PUSH0 DUP2 MLOAD SWAP1 POP PUSH2 0x306 DUP2 PUSH2 0x2E2 JUMP JUMPDEST SWAP3 SWAP2 POP POP JUMP JUMPDEST PUSH0 DUP2 SWAP1 POP SWAP2 SWAP1 POP JUMP JUMPDEST PUSH2 0x31E DUP2 PUSH2 0x30C JUMP JUMPDEST DUP2 EQ PUSH2 0x328 JUMPI PUSH0 PUSH0 REVERT JUMPDEST POP JUMP JUMPDEST PUSH0 DUP2 MLOAD SWAP1 POP PUSH2 0x339 DUP2 PUSH2 0x315 JUMP JUMPDEST SWAP3 SWAP2 POP POP JUMP JUMPDEST PUSH0 PUSH0 PUSH0 PUSH0 PUSH1 0x80 DUP6 DUP8 SUB SLT ISZERO PUSH2 0x357 JUMPI PUSH2 0x356 PUSH2 0x192 JUMP JUMPDEST JUMPDEST PUSH0 DUP6 ADD MLOAD PUSH8 0xFFFFFFFFFFFFFFFF DUP2 GT ISZERO PUSH2 0x374 JUMPI PUSH2 0x373 PUSH2 0x196 JUMP JUMPDEST JUMPDEST PUSH2 0x380 DUP8 DUP3 DUP9 ADD PUSH2 0x2A9 JUMP JUMPDEST SWAP5 POP POP PUSH1 0x20 DUP6 ADD MLOAD PUSH8 0xFFFFFFFFFFFFFFFF DUP2 GT ISZERO PUSH2 0x3A1 JUMPI PUSH2 0x3A0 PUSH2 0x196 JUMP JUMPDEST JUMPDEST PUSH2 0x3AD DUP8 DUP3 DUP9 ADD PUSH2 0x2A9 JUMP JUMPDEST SWAP4 POP POP PUSH1 0x40 PUSH2 0x3BE DUP8 DUP3 DUP9 ADD PUSH2 0x2F8 JUMP JUMPDEST SWAP3 POP POP PUSH1 0x60 PUSH2 0x3CF DUP8 DUP3 DUP9 ADD PUSH2 0x32B JUMP JUMPDEST SWAP2 POP POP SWAP3 SWAP6 SWAP2 SWAP5 POP SWAP3 POP JUMP JUMPDEST PUSH0 DUP2 MLOAD SWAP1 POP SWAP2 SWAP1 POP JUMP JUMPDEST PUSH32 0x4E487B7100000000000000000000000000000000000000000000000000000000 PUSH0 MSTORE PUSH1 0x22 PUSH1 0x4 MSTORE PUSH1 0x24 PUSH0 REVERT JUMPDEST PUSH0 PUSH1 0x2 DUP3 DIV SWAP1 POP PUSH1 0x1 DUP3 AND DUP1 PUSH2 0x429 JUMPI PUSH1 0x7F DUP3 AND SWAP2 POP JUMPDEST PUSH1 0x20 DUP3 LT DUP2 SUB PUSH2 0x43C JUMPI PUSH2 0x43B PUSH2 0x3E5 JUMP JUMPDEST JUMPDEST POP SWAP2 SWAP1 POP JUMP JUMPDEST PUSH0 DUP2 SWAP1 POP DUP2 PUSH0 MSTORE PUSH1 0x20 PUSH0 KECCAK256 SWAP1 POP SWAP2 SWAP1 POP JUMP JUMPDEST PUSH0 PUSH1 0x20 PUSH1 0x1F DUP4 ADD DIV SWAP1 POP SWAP2 SWAP1 POP JUMP JUMPDEST PUSH0 DUP3 DUP3 SHL SWAP1 POP SWAP3 SWAP2 POP POP JUMP JUMPDEST PUSH0 PUSH1 0x8 DUP4 MUL PUSH2 0x49E PUSH32 0xFFFFFFFFFFFFFFFFFFFFFFFFFFFFFFFFFFFFFFFFFFFFFFFFFFFFFFFFFFFFFFFF DUP3 PUSH2 0x463 JUMP JUMPDEST PUSH2 0x4A8 DUP7 DUP4 PUSH2 0x463 JUMP JUMPDEST SWAP6 POP DUP1 NOT DUP5 AND SWAP4 POP DUP1 DUP7 AND DUP5 OR SWAP3 POP POP POP SWAP4 SWAP3 POP POP POP JUMP JUMPDEST PUSH0 DUP2 SWAP1 POP SWAP2 SWAP1 POP JUMP JUMPDEST PUSH0 PUSH2 0x4E3 PUSH2 0x4DE PUSH2 0x4D9 DUP5 PUSH2 0x30C JUMP JUMPDEST PUSH2 0x4C0 JUMP JUMPDEST PUSH2 0x30C JUMP JUMPDEST SWAP1 POP SWAP2 SWAP1 POP JUMP JUMPDEST PUSH0 DUP2 SWAP1 POP SWAP2 SWAP1 POP JUMP JUMPDEST PUSH2 0x4FC DUP4 PUSH2 0x4C9 JUMP JUMPDEST PUSH2 0x510 PUSH2 0x508 DUP3 PUSH2 0x4EA JUMP JUMPDEST DUP5 DUP5 SLOAD PUSH2 0x46F JUMP JUMPDEST DUP3 SSTORE POP POP POP POP JUMP JUMPDEST PUSH0 PUSH0 SWAP1 POP SWAP1 JUMP JUMPDEST PUSH2 0x527 PUSH2 0x518 JUMP JUMPDEST PUSH2 0x532 DUP2 DUP5 DUP5 PUSH2 0x4F3 JUMP JUMPDEST POP POP POP JUMP JUMPDEST JUMPDEST DUP2 DUP2 LT ISZERO PUSH2 0x555 JUMPI PUSH2 0x54A PUSH0 DUP3 PUSH2 0x51F JUMP JUMPDEST PUSH1 0x1 DUP2 ADD SWAP1 POP PUSH2 0x538 JUMP JUMPDEST POP POP JUMP JUMPDEST PUSH1 0x1F DUP3 GT ISZERO PUSH2 0x59A JUMPI PUSH2 0x56B DUP2 PUSH2 0x442 JUMP JUMPDEST PUSH2 0x574 DUP5 PUSH2 0x454 JUMP JUMPDEST DUP2 ADD PUSH1 0x20 DUP6 LT ISZERO PUSH2 0x583 JUMPI DUP2 SWAP1 POP JUMPDEST PUSH2 0x597 PUSH2 0x58F DUP6 PUSH2 0x454 JUMP JUMPDEST DUP4 ADD DUP3 PUSH2 0x537 JUMP JUMPDEST POP POP JUMPDEST POP POP POP JUMP JUMPDEST PUSH0 DUP3 DUP3 SHR SWAP1 POP SWAP3 SWAP2 POP POP JUMP JUMPDEST PUSH0 PUSH2 0x5BA PUSH0 NOT DUP5 PUSH1 0x8 MUL PUSH2 0x59F JUMP JUMPDEST NOT DUP1 DUP4 AND SWAP2 POP POP SWAP3 SWAP2 POP POP JUMP JUMPDEST PUSH0 PUSH2 0x5D2 DUP4 DUP4 PUSH2 0x5AB JUMP JUMPDEST SWAP2 POP DUP3 PUSH1 0x2 MUL DUP3 OR SWAP1 POP SWAP3 SWAP2 POP POP JUMP JUMPDEST PUSH2 0x5EB DUP3 PUSH2 0x3DB JUMP JUMPDEST PUSH8 0xFFFFFFFFFFFFFFFF DUP2 GT ISZERO PUSH2 0x604 JUMPI PUSH2 0x603 PUSH2 0x1B2 JUMP JUMPDEST JUMPDEST PUSH2 0x60E DUP3 SLOAD PUSH2 0x412 JUMP JUMPDEST PUSH2 0x619 DUP3 DUP3 DUP6 PUSH2 0x559 JUMP JUMPDEST PUSH0 PUSH1 0x20 SWAP1 POP PUSH1 0x1F DUP4 GT PUSH1 0x1 DUP2 EQ PUSH2 0x64A JUMPI PUSH0 DUP5 ISZERO PUSH2 0x638 JUMPI DUP3 DUP8 ADD MLOAD SWAP1 POP JUMPDEST PUSH2 0x642 DUP6 DUP3 PUSH2 0x5C7 JUMP JUMPDEST DUP7 SSTORE POP PUSH2 0x6A9 JUMP JUMPDEST PUSH1 0x1F NOT DUP5 AND PUSH2 0x658 DUP7 PUSH2 0x442 JUMP JUMPDEST PUSH0 JUMPDEST DUP3 DUP2 LT ISZERO PUSH2 0x67F JUMPI DUP5 DUP10 ADD MLOAD DUP3 SSTORE PUSH1 0x1 DUP3 ADD SWAP2 POP PUSH1 0x20 DUP6 ADD SWAP5 POP PUSH1 0x20 DUP2 ADD SWAP1 POP PUSH2 0x65A JUMP JUMPDEST DUP7 DUP4 LT ISZERO PUSH2 0x69C JUMPI DUP5 DUP10 ADD MLOAD PUSH2 0x698 PUSH1 0x1F DUP10 AND DUP3 PUSH2 0x5AB JUMP JUMPDEST DUP4 SSTORE POP JUMPDEST PUSH1 0x1 PUSH1 0x2 DUP9 MUL ADD DUP9 SSTORE POP POP POP JUMPDEST POP POP POP POP POP POP JUMP JUMPDEST PUSH32 0x4E487B7100000000000000000000000000000000000000000000000000000000 PUSH0 MSTORE PUSH1 0x11 PUSH1 0x4 MSTORE PUSH1 0x24 PUSH0 REVERT JUMPDEST PUSH0 DUP2 PUSH1 0x1 SHR SWAP1 POP SWAP2 SWAP1 POP JUMP JUMPDEST PUSH0 PUSH0 DUP3 SWAP2 POP DUP4 SWAP1 POP JUMPDEST PUSH1 0x1 DUP6 GT ISZERO PUSH2 0x733 JUMPI DUP1 DUP7 DIV DUP2 GT ISZERO PUSH2 0x70F JUMPI PUSH2 0x70E PUSH2 0x6B1 JUMP JUMPDEST JUMPDEST PUSH1 0x1 DUP6 AND ISZERO PUSH2 0x71E JUMPI DUP1 DUP3 MUL SWAP2 POP JUMPDEST DUP1 DUP2 MUL SWAP1 POP PUSH2 0x72C DUP6 PUSH2 0x6DE JUMP JUMPDEST SWAP5 POP PUSH2 0x6F3 JUMP JUMPDEST SWAP5 POP SWAP5 SWAP3 POP POP POP JUMP JUMPDEST PUSH0 DUP3 PUSH2 0x74B JUMPI PUSH1 0x1 SWAP1 POP PUSH2 0x806 JUMP JUMPDEST DUP2 PUSH2 0x758 JUMPI PUSH0 SWAP1 POP PUSH2 0x806 JUMP JUMPDEST DUP2 PUSH1 0x1 DUP2 EQ PUSH2 0x76E JUMPI PUSH1 0x2 DUP2 EQ PUSH2 0x778 JUMPI PUSH2 0x7A7 JUMP JUMPDEST PUSH1 0x1 SWAP2 POP POP PUSH2 0x806 JUMP JUMPDEST PUSH1 0xFF DUP5 GT ISZERO PUSH2 0x78A JUMPI PUSH2 0x789 PUSH2 0x6B1 JUMP JUMPDEST JUMPDEST DUP4 PUSH1 0x2 EXP SWAP2 POP DUP5 DUP3 GT ISZERO PUSH2 0x7A1 JUMPI PUSH2 0x7A0 PUSH2 0x6B1 JUMP JUMPDEST JUMPDEST POP PUSH2 0x806 JUMP JUMPDEST POP PUSH1 0x20 DUP4 LT PUSH2 0x133 DUP4 LT AND PUSH1 0x4E DUP5 LT PUSH1 0xB DUP5 LT AND OR ISZERO PUSH2 0x7DC JUMPI DUP3 DUP3 EXP SWAP1 POP DUP4 DUP2 GT ISZERO PUSH2 0x7D7 JUMPI PUSH2 0x7D6 PUSH2 0x6B1 JUMP JUMPDEST JUMPDEST PUSH2 0x806 JUMP JUMPDEST PUSH2 0x7E9 DUP5 DUP5 DUP5 PUSH1 0x1 PUSH2 0x6EA JUMP JUMPDEST SWAP3 POP SWAP1 POP DUP2 DUP5 DIV DUP2 GT ISZERO PUSH2 0x800 JUMPI PUSH2 0x7FF PUSH2 0x6B1 JUMP JUMPDEST JUMPDEST DUP2 DUP2 MUL SWAP1 POP JUMPDEST SWAP4 SWAP3 POP POP POP JUMP JUMPDEST PUSH0 PUSH2 0x817 DUP3 PUSH2 0x30C JUMP JUMPDEST SWAP2 POP PUSH2 0x822 DUP4 PUSH2 0x2D6 JUMP JUMPDEST SWAP3 POP PUSH2 0x84F PUSH32 0xFFFFFFFFFFFFFFFFFFFFFFFFFFFFFFFFFFFFFFFFFFFFFFFFFFFFFFFFFFFFFFFF DUP5 DUP5 PUSH2 0x73C JUMP JUMPDEST SWAP1 POP SWAP3 SWAP2 POP POP JUMP JUMPDEST PUSH0 PUSH2 0x861 DUP3 PUSH2 0x30C JUMP JUMPDEST SWAP2 POP PUSH2 0x86C DUP4 PUSH2 0x30C JUMP JUMPDEST SWAP3 POP DUP3 DUP3 MUL PUSH2 0x87A DUP2 PUSH2 0x30C JUMP JUMPDEST SWAP2 POP DUP3 DUP3 DIV DUP5 EQ DUP4 ISZERO OR PUSH2 0x891 JUMPI PUSH2 0x890 PUSH2 0x6B1 JUMP JUMPDEST JUMPDEST POP SWAP3 SWAP2 POP POP JUMP JUMPDEST PUSH2 0x8A1 DUP2 PUSH2 0x30C JUMP JUMPDEST DUP3 MSTORE POP POP JUMP JUMPDEST PUSH0 PUSH1 0x20 DUP3 ADD SWAP1 POP PUSH2 0x8BA PUSH0 DUP4 ADD DUP5 PUSH2 0x898 JUMP JUMPDEST SWAP3 SWAP2 POP POP JUMP JUMPDEST PUSH1 0x80 MLOAD PUSH2 0x21D5 PUSH2 0x8ED PUSH0 CODECOPY PUSH0 DUP2 DUP2 PUSH2 0x9AA ADD MSTORE DUP2 DUP2 PUSH2 0xA53 ADD MSTORE DUP2 DUP2 PUSH2 0xD9D ADD MSTORE PUSH2 0x129C ADD MSTORE PUSH2 0x21D5 PUSH0 RETURN INVALID PUSH1 0x80 PUSH1 0x40 MSTORE CALLVALUE DUP1 ISZERO PUSH2 0xF JUMPI PUSH0 PUSH0 REVERT JUMPDEST POP PUSH1 0x4 CALLDATASIZE LT PUSH2 0x109 JUMPI PUSH0 CALLDATALOAD PUSH1 0xE0 SHR DUP1 PUSH4 0x42966C68 GT PUSH2 0xA0 JUMPI DUP1 PUSH4 0x88D695B2 GT PUSH2 0x6F JUMPI DUP1 PUSH4 0x88D695B2 EQ PUSH2 0x27F JUMPI DUP1 PUSH4 0x8DA5CB5B EQ PUSH2 0x2AF JUMPI DUP1 PUSH4 0x95D89B41 EQ PUSH2 0x2CD JUMPI DUP1 PUSH4 0xA9059CBB EQ PUSH2 0x2EB JUMPI DUP1 PUSH4 0xDD62ED3E EQ PUSH2 0x31B JUMPI PUSH2 0x109 JUMP JUMPDEST DUP1 PUSH4 0x42966C68 EQ PUSH2 0x20B JUMPI DUP1 PUSH4 0x5C975ABB EQ PUSH2 0x227 JUMPI DUP1 PUSH4 0x70A08231 EQ PUSH2 0x245 JUMPI DUP1 PUSH4 0x8456CB59 EQ PUSH2 0x275 JUMPI PUSH2 0x109 JUMP JUMPDEST DUP1 PUSH4 0x295D0EE8 GT PUSH2 0xDC JUMPI DUP1 PUSH4 0x295D0EE8 EQ PUSH2 0x1A9 JUMPI DUP1 PUSH4 0x313CE567 EQ PUSH2 0x1C7 JUMPI DUP1 PUSH4 0x3F4BA83A EQ PUSH2 0x1E5 JUMPI DUP1 PUSH4 0x40C10F19 EQ PUSH2 0x1EF JUMPI PUSH2 0x109 JUMP JUMPDEST DUP1 PUSH4 0x6FDDE03 EQ PUSH2 0x10D JUMPI DUP1 PUSH4 0x95EA7B3 EQ PUSH2 0x12B JUMPI DUP1 PUSH4 0x18160DDD EQ PUSH2 0x15B JUMPI DUP1 PUSH4 0x23B872DD EQ PUSH2 0x179 JUMPI JUMPDEST PUSH0 PUSH0 REVERT JUMPDEST PUSH2 0x115 PUSH2 0x34B JUMP JUMPDEST PUSH1 0x40 MLOAD PUSH2 0x122 SWAP2 SWAP1 PUSH2 0x162D JUMP JUMPDEST PUSH1 0x40 MLOAD DUP1 SWAP2 SUB SWAP1 RETURN JUMPDEST PUSH2 0x145 PUSH1 0x4 DUP1 CALLDATASIZE SUB DUP2 ADD SWAP1 PUSH2 0x140 SWAP2 SWAP1 PUSH2 0x16EB JUMP JUMPDEST PUSH2 0x3D6 JUMP JUMPDEST PUSH1 0x40 MLOAD PUSH2 0x152 SWAP2 SWAP1 PUSH2 0x1743 JUMP JUMPDEST PUSH1 0x40 MLOAD DUP1 SWAP2 SUB SWAP1 RETURN JUMPDEST PUSH2 0x163 PUSH2 0x580 JUMP JUMPDEST PUSH1 0x40 MLOAD PUSH2 0x170 SWAP2 SWAP1 PUSH2 0x176B JUMP JUMPDEST PUSH1 0x40 MLOAD DUP1 SWAP2 SUB SWAP1 RETURN JUMPDEST PUSH2 0x193 PUSH1 0x4 DUP1 CALLDATASIZE SUB DUP2 ADD SWAP1 PUSH2 0x18E SWAP2 SWAP1 PUSH2 0x1784 JUMP JUMPDEST PUSH2 0x586 JUMP JUMPDEST PUSH1 0x40 MLOAD PUSH2 0x1A0 SWAP2 SWAP1 PUSH2 0x1743 JUMP JUMPDEST PUSH1 0x40 MLOAD DUP1 SWAP2 SUB SWAP1 RETURN JUMPDEST PUSH2 0x1B1 PUSH2 0x991 JUMP JUMPDEST PUSH1 0x40 MLOAD PUSH2 0x1BE SWAP2 SWAP1 PUSH2 0x176B JUMP JUMPDEST PUSH1 0x40 MLOAD DUP1 SWAP2 SUB SWAP1 RETURN JUMPDEST PUSH2 0x1CF PUSH2 0x996 JUMP JUMPDEST PUSH1 0x40 MLOAD PUSH2 0x1DC SWAP2 SWAP1 PUSH2 0x17EF JUMP JUMPDEST PUSH1 0x40 MLOAD DUP1 SWAP2 SUB SWAP1 RETURN JUMPDEST PUSH2 0x1ED PUSH2 0x9A8 JUMP JUMPDEST STOP JUMPDEST PUSH2 0x209 PUSH1 0x4 DUP1 CALLDATASIZE SUB DUP2 ADD SWAP1 PUSH2 0x204 SWAP2 SWAP1 PUSH2 0x16EB JUMP JUMPDEST PUSH2 0xA51 JUMP JUMPDEST STOP JUMPDEST PUSH2 0x225 PUSH1 0x4 DUP1 CALLDATASIZE SUB DUP2 ADD SWAP1 PUSH2 0x220 SWAP2 SWAP1 PUSH2 0x1808 JUMP JUMPDEST PUSH2 0xC21 JUMP JUMPDEST STOP JUMPDEST PUSH2 0x22F PUSH2 0xD74 JUMP JUMPDEST PUSH1 0x40 MLOAD PUSH2 0x23C SWAP2 SWAP1 PUSH2 0x1743 JUMP JUMPDEST PUSH1 0x40 MLOAD DUP1 SWAP2 SUB SWAP1 RETURN JUMPDEST PUSH2 0x25F PUSH1 0x4 DUP1 CALLDATASIZE SUB DUP2 ADD SWAP1 PUSH2 0x25A SWAP2 SWAP1 PUSH2 0x1833 JUMP JUMPDEST PUSH2 0xD86 JUMP JUMPDEST PUSH1 0x40 MLOAD PUSH2 0x26C SWAP2 SWAP1 PUSH2 0x176B JUMP JUMPDEST PUSH1 0x40 MLOAD DUP1 SWAP2 SUB SWAP1 RETURN JUMPDEST PUSH2 0x27D PUSH2 0xD9B JUMP JUMPDEST STOP JUMPDEST PUSH2 0x299 PUSH1 0x4 DUP1 CALLDATASIZE SUB DUP2 ADD SWAP1 PUSH2 0x294 SWAP2 SWAP1 PUSH2 0x1A5E JUMP JUMPDEST PUSH2 0xE45 JUMP JUMPDEST PUSH1 0x40 MLOAD PUSH2 0x2A6 SWAP2 SWAP1 PUSH2 0x1743 JUMP JUMPDEST PUSH1 0x40 MLOAD DUP1 SWAP2 SUB SWAP1 RETURN JUMPDEST PUSH2 0x2B7 PUSH2 0x129A JUMP JUMPDEST PUSH1 0x40 MLOAD PUSH2 0x2C4 SWAP2 SWAP1 PUSH2 0x1AE3 JUMP JUMPDEST PUSH1 0x40 MLOAD DUP1 SWAP2 SUB SWAP1 RETURN JUMPDEST PUSH2 0x2D5 PUSH2 0x12BE JUMP JUMPDEST PUSH1 0x40 MLOAD PUSH2 0x2E2 SWAP2 SWAP1 PUSH2 0x162D JUMP JUMPDEST PUSH1 0x40 MLOAD DUP1 SWAP2 SUB SWAP1 RETURN JUMPDEST PUSH2 0x305 PUSH1 0x4 DUP1 CALLDATASIZE SUB DUP2 ADD SWAP1 PUSH2 0x300 SWAP2 SWAP1 PUSH2 0x16EB JUMP JUMPDEST PUSH2 0x134A JUMP JUMPDEST PUSH1 0x40 MLOAD PUSH2 0x312 SWAP2 SWAP1 PUSH2 0x1743 JUMP JUMPDEST PUSH1 0x40 MLOAD DUP1 SWAP2 SUB SWAP1 RETURN JUMPDEST PUSH2 0x335 PUSH1 0x4 DUP1 CALLDATASIZE SUB DUP2 ADD SWAP1 PUSH2 0x330 SWAP2 SWAP1 PUSH2 0x1AFC JUMP JUMPDEST PUSH2 0x159D JUMP JUMPDEST PUSH1 0x40 MLOAD PUSH2 0x342 SWAP2 SWAP1 PUSH2 0x176B JUMP JUMPDEST PUSH1 0x40 MLOAD DUP1 SWAP2 SUB SWAP1 RETURN JUMPDEST PUSH0 DUP1 SLOAD PUSH2 0x357 SWAP1 PUSH2 0x1B67 JUMP JUMPDEST DUP1 PUSH1 0x1F ADD PUSH1 0x20 DUP1 SWAP2 DIV MUL PUSH1 0x20 ADD PUSH1 0x40 MLOAD SWAP1 DUP2 ADD PUSH1 0x40 MSTORE DUP1 SWAP3 SWAP2 SWAP1 DUP2 DUP2 MSTORE PUSH1 0x20 ADD DUP3 DUP1 SLOAD PUSH2 0x383 SWAP1 PUSH2 0x1B67 JUMP JUMPDEST DUP1 ISZERO PUSH2 0x3CE JUMPI DUP1 PUSH1 0x1F LT PUSH2 0x3A5 JUMPI PUSH2 0x100 DUP1 DUP4 SLOAD DIV MUL DUP4 MSTORE SWAP2 PUSH1 0x20 ADD SWAP2 PUSH2 0x3CE JUMP JUMPDEST DUP3 ADD SWAP2 SWAP1 PUSH0 MSTORE PUSH1 0x20 PUSH0 KECCAK256 SWAP1 JUMPDEST DUP2 SLOAD DUP2 MSTORE SWAP1 PUSH1 0x1 ADD SWAP1 PUSH1 0x20 ADD DUP1 DUP4 GT PUSH2 0x3B1 JUMPI DUP3 SWAP1 SUB PUSH1 0x1F AND DUP3 ADD SWAP2 JUMPDEST POP POP POP POP POP DUP2 JUMP JUMPDEST PUSH0 PUSH1 0x6 PUSH0 SWAP1 SLOAD SWAP1 PUSH2 0x100 EXP SWAP1 DIV PUSH1 0xFF AND ISZERO PUSH2 0x426 JUMPI PUSH1 0x40 MLOAD PUSH32 0x8C379A000000000000000000000000000000000000000000000000000000000 DUP2 MSTORE PUSH1 0x4 ADD PUSH2 0x41D SWAP1 PUSH2 0x1BE1 JUMP JUMPDEST PUSH1 0x40 MLOAD DUP1 SWAP2 SUB SWAP1 REVERT JUMPDEST PUSH0 PUSH20 0xFFFFFFFFFFFFFFFFFFFFFFFFFFFFFFFFFFFFFFFF AND DUP4 PUSH20 0xFFFFFFFFFFFFFFFFFFFFFFFFFFFFFFFFFFFFFFFF AND SUB PUSH2 0x494 JUMPI PUSH1 0x40 MLOAD PUSH32 0x8C379A000000000000000000000000000000000000000000000000000000000 DUP2 MSTORE PUSH1 0x4 ADD PUSH2 0x48B SWAP1 PUSH2 0x1C49 JUMP JUMPDEST PUSH1 0x40 MLOAD DUP1 SWAP2 SUB SWAP1 REVERT JUMPDEST DUP2 PUSH1 0x5 PUSH0 CALLER PUSH20 0xFFFFFFFFFFFFFFFFFFFFFFFFFFFFFFFFFFFFFFFF AND PUSH20 0xFFFFFFFFFFFFFFFFFFFFFFFFFFFFFFFFFFFFFFFF AND DUP2 MSTORE PUSH1 0x20 ADD SWAP1 DUP2 MSTORE PUSH1 0x20 ADD PUSH0 KECCAK256 PUSH0 DUP6 PUSH20 0xFFFFFFFFFFFFFFFFFFFFFFFFFFFFFFFFFFFFFFFF AND PUSH20 0xFFFFFFFFFFFFFFFFFFFFFFFFFFFFFFFFFFFFFFFF AND DUP2 MSTORE PUSH1 0x20 ADD SWAP1 DUP2 MSTORE PUSH1 0x20 ADD PUSH0 KECCAK256 DUP2 SWAP1 SSTORE POP DUP3 PUSH20 0xFFFFFFFFFFFFFFFFFFFFFFFFFFFFFFFFFFFFFFFF AND CALLER PUSH20 0xFFFFFFFFFFFFFFFFFFFFFFFFFFFFFFFFFFFFFFFF AND PUSH32 0x8C5BE1E5EBEC7D5BD14F71427D1E84F3DD0314C0F7B2291E5B200AC8C7C3B925 DUP5 PUSH1 0x40 MLOAD PUSH2 0x56E SWAP2 SWAP1 PUSH2 0x176B JUMP JUMPDEST PUSH1 0x40 MLOAD DUP1 SWAP2 SUB SWAP1 LOG3 PUSH1 0x1 SWAP1 POP SWAP3 SWAP2 POP POP JUMP JUMPDEST PUSH1 0x3 SLOAD DUP2 JUMP JUMPDEST PUSH0 PUSH1 0x6 PUSH0 SWAP1 SLOAD SWAP1 PUSH2 0x100 EXP SWAP1 DIV PUSH1 0xFF AND ISZERO PUSH2 0x5D6 JUMPI PUSH1 0x40 MLOAD PUSH32 0x8C379A000000000000000000000000000000000000000000000000000000000 DUP2 MSTORE PUSH1 0x4 ADD PUSH2 0x5CD SWAP1 PUSH2 0x1BE1 JUMP JUMPDEST PUSH1 0x40 MLOAD DUP1 SWAP2 SUB SWAP1 REVERT JUMPDEST PUSH0 PUSH20 0xFFFFFFFFFFFFFFFFFFFFFFFFFFFFFFFFFFFFFFFF AND DUP5 PUSH20 0xFFFFFFFFFFFFFFFFFFFFFFFFFFFFFFFFFFFFFFFF AND SUB PUSH2 0x644 JUMPI PUSH1 0x40 MLOAD PUSH32 0x8C379A000000000000000000000000000000000000000000000000000000000 DUP2 MSTORE PUSH1 0x4 ADD PUSH2 0x63B SWAP1 PUSH2 0x1CB1 JUMP JUMPDEST PUSH1 0x40 MLOAD DUP1 SWAP2 SUB SWAP1 REVERT JUMPDEST PUSH0 PUSH20 0xFFFFFFFFFFFFFFFFFFFFFFFFFFFFFFFFFFFFFFFF AND DUP4 PUSH20 0xFFFFFFFFFFFFFFFFFFFFFFFFFFFFFFFFFFFFFFFF AND SUB PUSH2 0x6B2 JUMPI PUSH1 0x40 MLOAD PUSH32 0x8C379A000000000000000000000000000000000000000000000000000000000 DUP2 MSTORE PUSH1 0x4 ADD PUSH2 0x6A9 SWAP1 PUSH2 0x1D19 JUMP JUMPDEST PUSH1 0x40 MLOAD DUP1 SWAP2 SUB SWAP1 REVERT JUMPDEST DUP2 PUSH1 0x4 PUSH0 DUP7 PUSH20 0xFFFFFFFFFFFFFFFFFFFFFFFFFFFFFFFFFFFFFFFF AND PUSH20 0xFFFFFFFFFFFFFFFFFFFFFFFFFFFFFFFFFFFFFFFF AND DUP2 MSTORE PUSH1 0x20 ADD SWAP1 DUP2 MSTORE PUSH1 0x20 ADD PUSH0 KECCAK256 SLOAD LT ISZERO PUSH2 0x732 JUMPI PUSH1 0x40 MLOAD PUSH32 0x8C379A000000000000000000000000000000000000000000000000000000000 DUP2 MSTORE PUSH1 0x4 ADD PUSH2 0x729 SWAP1 PUSH2 0x1D81 JUMP JUMPDEST PUSH1 0x40 MLOAD DUP1 SWAP2 SUB SWAP1 REVERT JUMPDEST DUP2 PUSH1 0x5 PUSH0 DUP7 PUSH20 0xFFFFFFFFFFFFFFFFFFFFFFFFFFFFFFFFFFFFFFFF AND PUSH20 0xFFFFFFFFFFFFFFFFFFFFFFFFFFFFFFFFFFFFFFFF AND DUP2 MSTORE PUSH1 0x20 ADD SWAP1 DUP2 MSTORE PUSH1 0x20 ADD PUSH0 KECCAK256 PUSH0 CALLER PUSH20 0xFFFFFFFFFFFFFFFFFFFFFFFFFFFFFFFFFFFFFFFF AND PUSH20 0xFFFFFFFFFFFFFFFFFFFFFFFFFFFFFFFFFFFFFFFF AND DUP2 MSTORE PUSH1 0x20 ADD SWAP1 DUP2 MSTORE PUSH1 0x20 ADD PUSH0 KECCAK256 SLOAD LT ISZERO PUSH2 0x7ED JUMPI PUSH1 0x40 MLOAD PUSH32 0x8C379A000000000000000000000000000000000000000000000000000000000 DUP2 MSTORE PUSH1 0x4 ADD PUSH2 0x7E4 SWAP1 PUSH2 0x1DE9 JUMP JUMPDEST PUSH1 0x40 MLOAD DUP1 SWAP2 SUB SWAP1 REVERT JUMPDEST DUP2 PUSH1 0x4 PUSH0 DUP7 PUSH20 0xFFFFFFFFFFFFFFFFFFFFFFFFFFFFFFFFFFFFFFFF AND PUSH20 0xFFFFFFFFFFFFFFFFFFFFFFFFFFFFFFFFFFFFFFFF AND DUP2 MSTORE PUSH1 0x20 ADD SWAP1 DUP2 MSTORE PUSH1 0x20 ADD PUSH0 KECCAK256 PUSH0 DUP3 DUP3 SLOAD PUSH2 0x839 SWAP2 SWAP1 PUSH2 0x1E34 JUMP JUMPDEST SWAP3 POP POP DUP2 SWAP1 SSTORE POP DUP2 PUSH1 0x4 PUSH0 DUP6 PUSH20 0xFFFFFFFFFFFFFFFFFFFFFFFFFFFFFFFFFFFFFFFF AND PUSH20 0xFFFFFFFFFFFFFFFFFFFFFFFFFFFFFFFFFFFFFFFF AND DUP2 MSTORE PUSH1 0x20 ADD SWAP1 DUP2 MSTORE PUSH1 0x20 ADD PUSH0 KECCAK256 PUSH0 DUP3 DUP3 SLOAD PUSH2 0x88C SWAP2 SWAP1 PUSH2 0x1E67 JUMP JUMPDEST SWAP3 POP POP DUP2 SWAP1 SSTORE POP DUP2 PUSH1 0x5 PUSH0 DUP7 PUSH20 0xFFFFFFFFFFFFFFFFFFFFFFFFFFFFFFFFFFFFFFFF AND PUSH20 0xFFFFFFFFFFFFFFFFFFFFFFFFFFFFFFFFFFFFFFFF AND DUP2 MSTORE PUSH1 0x20 ADD SWAP1 DUP2 MSTORE PUSH1 0x20 ADD PUSH0 KECCAK256 PUSH0 CALLER PUSH20 0xFFFFFFFFFFFFFFFFFFFFFFFFFFFFFFFFFFFFFFFF AND PUSH20 0xFFFFFFFFFFFFFFFFFFFFFFFFFFFFFFFFFFFFFFFF AND DUP2 MSTORE PUSH1 0x20 ADD SWAP1 DUP2 MSTORE PUSH1 0x20 ADD PUSH0 KECCAK256 PUSH0 DUP3 DUP3 SLOAD PUSH2 0x91A SWAP2 SWAP1 PUSH2 0x1E34 JUMP JUMPDEST SWAP3 POP POP DUP2 SWAP1 SSTORE POP DUP3 PUSH20 0xFFFFFFFFFFFFFFFFFFFFFFFFFFFFFFFFFFFFFFFF AND DUP5 PUSH20 0xFFFFFFFFFFFFFFFFFFFFFFFFFFFFFFFFFFFFFFFF AND PUSH32 0xDDF252AD1BE2C89B69C2B068FC378DAA952BA7F163C4A11628F55A4DF523B3EF DUP5 PUSH1 0x40 MLOAD PUSH2 0x97E SWAP2 SWAP1 PUSH2 0x176B JUMP JUMPDEST PUSH1 0x40 MLOAD DUP1 SWAP2 SUB SWAP1 LOG3 PUSH1 0x1 SWAP1 POP SWAP4 SWAP3 POP POP POP JUMP JUMPDEST PUSH1 0x32 DUP2 JUMP JUMPDEST PUSH1 0x2 PUSH0 SWAP1 SLOAD SWAP1 PUSH2 0x100 EXP SWAP1 DIV PUSH1 0xFF AND DUP2 JUMP JUMPDEST PUSH32 0x0 PUSH20 0xFFFFFFFFFFFFFFFFFFFFFFFFFFFFFFFFFFFFFFFF AND CALLER PUSH20 0xFFFFFFFFFFFFFFFFFFFFFFFFFFFFFFFFFFFFFFFF AND EQ PUSH2 0xA36 JUMPI PUSH1 0x40 MLOAD PUSH32 0x8C379A000000000000000000000000000000000000000000000000000000000 DUP2 MSTORE PUSH1 0x4 ADD PUSH2 0xA2D SWAP1 PUSH2 0x1EE4 JUMP JUMPDEST PUSH1 0x40 MLOAD DUP1 SWAP2 SUB SWAP1 REVERT JUMPDEST PUSH0 PUSH1 0x6 PUSH0 PUSH2 0x100 EXP DUP2 SLOAD DUP2 PUSH1 0xFF MUL NOT AND SWAP1 DUP4 ISZERO ISZERO MUL OR SWAP1 SSTORE POP JUMP JUMPDEST PUSH32 0x0 PUSH20 0xFFFFFFFFFFFFFFFFFFFFFFFFFFFFFFFFFFFFFFFF AND CALLER PUSH20 0xFFFFFFFFFFFFFFFFFFFFFFFFFFFFFFFFFFFFFFFF AND EQ PUSH2 0xADF JUMPI PUSH1 0x40 MLOAD PUSH32 0x8C379A000000000000000000000000000000000000000000000000000000000 DUP2 MSTORE PUSH1 0x4 ADD PUSH2 0xAD6 SWAP1 PUSH2 0x1EE4 JUMP JUMPDEST PUSH1 0x40 MLOAD DUP1 SWAP2 SUB SWAP1 REVERT JUMPDEST PUSH0 PUSH20 0xFFFFFFFFFFFFFFFFFFFFFFFFFFFFFFFFFFFFFFFF AND DUP3 PUSH20 0xFFFFFFFFFFFFFFFFFFFFFFFFFFFFFFFFFFFFFFFF AND SUB PUSH2 0xB4D JUMPI PUSH1 0x40 MLOAD PUSH32 0x8C379A000000000000000000000000000000000000000000000000000000000 DUP2 MSTORE PUSH1 0x4 ADD PUSH2 0xB44 SWAP1 PUSH2 0x1F4C JUMP JUMPDEST PUSH1 0x40 MLOAD DUP1 SWAP2 SUB SWAP1 REVERT JUMPDEST DUP1 PUSH1 0x3 PUSH0 DUP3 DUP3 SLOAD PUSH2 0xB5E SWAP2 SWAP1 PUSH2 0x1E67 JUMP JUMPDEST SWAP3 POP POP DUP2 SWAP1 SSTORE POP DUP1 PUSH1 0x4 PUSH0 DUP5 PUSH20 0xFFFFFFFFFFFFFFFFFFFFFFFFFFFFFFFFFFFFFFFF AND PUSH20 0xFFFFFFFFFFFFFFFFFFFFFFFFFFFFFFFFFFFFFFFF AND DUP2 MSTORE PUSH1 0x20 ADD SWAP1 DUP2 MSTORE PUSH1 0x20 ADD PUSH0 KECCAK256 PUSH0 DUP3 DUP3 SLOAD PUSH2 0xBB1 SWAP2 SWAP1 PUSH2 0x1E67 JUMP JUMPDEST SWAP3 POP POP DUP2 SWAP1 SSTORE POP DUP2 PUSH20 0xFFFFFFFFFFFFFFFFFFFFFFFFFFFFFFFFFFFFFFFF AND PUSH0 PUSH20 0xFFFFFFFFFFFFFFFFFFFFFFFFFFFFFFFFFFFFFFFF AND PUSH32 0xDDF252AD1BE2C89B69C2B068FC378DAA952BA7F163C4A11628F55A4DF523B3EF DUP4 PUSH1 0x40 MLOAD PUSH2 0xC15 SWAP2 SWAP1 PUSH2 0x176B JUMP JUMPDEST PUSH1 0x40 MLOAD DUP1 SWAP2 SUB SWAP1 LOG3 POP POP JUMP JUMPDEST DUP1 PUSH1 0x4 PUSH0 CALLER PUSH20 0xFFFFFFFFFFFFFFFFFFFFFFFFFFFFFFFFFFFFFFFF AND PUSH20 0xFFFFFFFFFFFFFFFFFFFFFFFFFFFFFFFFFFFFFFFF AND DUP2 MSTORE PUSH1 0x20 ADD SWAP1 DUP2 MSTORE PUSH1 0x20 ADD PUSH0 KECCAK256 SLOAD LT ISZERO PUSH2 0xCA1 JUMPI PUSH1 0x40 MLOAD PUSH32 0x8C379A000000000000000000000000000000000000000000000000000000000 DUP2 MSTORE PUSH1 0x4 ADD PUSH2 0xC98 SWAP1 PUSH2 0x1D81 JUMP JUMPDEST PUSH1 0x40 MLOAD DUP1 SWAP2 SUB SWAP1 REVERT JUMPDEST DUP1 PUSH1 0x3 PUSH0 DUP3 DUP3 SLOAD PUSH2 0xCB2 SWAP2 SWAP1 PUSH2 0x1E34 JUMP JUMPDEST SWAP3 POP POP DUP2 SWAP1 SSTORE POP DUP1 PUSH1 0x4 PUSH0 CALLER PUSH20 0xFFFFFFFFFFFFFFFFFFFFFFFFFFFFFFFFFFFFFFFF AND PUSH20 0xFFFFFFFFFFFFFFFFFFFFFFFFFFFFFFFFFFFFFFFF AND DUP2 MSTORE PUSH1 0x20 ADD SWAP1 DUP2 MSTORE PUSH1 0x20 ADD PUSH0 KECCAK256 PUSH0 DUP3 DUP3 SLOAD PUSH2 0xD05 SWAP2 SWAP1 PUSH2 0x1E34 JUMP JUMPDEST SWAP3 POP POP DUP2 SWAP1 SSTORE POP PUSH0 PUSH20 0xFFFFFFFFFFFFFFFFFFFFFFFFFFFFFFFFFFFFFFFF AND CALLER PUSH20 0xFFFFFFFFFFFFFFFFFFFFFFFFFFFFFFFFFFFFFFFF AND PUSH32 0xDDF252AD1BE2C89B69C2B068FC378DAA952BA7F163C4A11628F55A4DF523B3EF DUP4 PUSH1 0x40 MLOAD PUSH2 0xD69 SWAP2 SWAP1 PUSH2 0x176B JUMP JUMPDEST PUSH1 0x40 MLOAD DUP1 SWAP2 SUB SWAP1 LOG3 POP JUMP JUMPDEST PUSH1 0x6 PUSH0 SWAP1 SLOAD SWAP1 PUSH2 0x100 EXP SWAP1 DIV PUSH1 0xFF AND DUP2 JUMP JUMPDEST PUSH1 0x4 PUSH1 0x20 MSTORE DUP1 PUSH0 MSTORE PUSH1 0x40 PUSH0 KECCAK256 PUSH0 SWAP2 POP SWAP1 POP SLOAD DUP2 JUMP JUMPDEST PUSH32 0x0 PUSH20 0xFFFFFFFFFFFFFFFFFFFFFFFFFFFFFFFFFFFFFFFF AND CALLER PUSH20 0xFFFFFFFFFFFFFFFFFFFFFFFFFFFFFFFFFFFFFFFF AND EQ PUSH2 0xE29 JUMPI PUSH1 0x40 MLOAD PUSH32 0x8C379A000000000000000000000000000000000000000000000000000000000 DUP2 MSTORE PUSH1 0x4 ADD PUSH2 0xE20 SWAP1 PUSH2 0x1EE4 JUMP JUMPDEST PUSH1 0x40 MLOAD DUP1 SWAP2 SUB SWAP1 REVERT JUMPDEST PUSH1 0x1 PUSH1 0x6 PUSH0 PUSH2 0x100 EXP DUP2 SLOAD DUP2 PUSH1 0xFF MUL NOT AND SWAP1 DUP4 ISZERO ISZERO MUL OR SWAP1 SSTORE POP JUMP JUMPDEST PUSH0 PUSH1 0x6 PUSH0 SWAP1 SLOAD SWAP1 PUSH2 0x100 EXP SWAP1 DIV PUSH1 0xFF AND ISZERO PUSH2 0xE95 JUMPI PUSH1 0x40 MLOAD PUSH32 0x8C379A000000000000000000000000000000000000000000000000000000000 DUP2 MSTORE PUSH1 0x4 ADD PUSH2 0xE8C SWAP1 PUSH2 0x1BE1 JUMP JUMPDEST PUSH1 0x40 MLOAD DUP1 SWAP2 SUB SWAP1 REVERT JUMPDEST DUP2 MLOAD DUP4 MLOAD EQ PUSH2 0xED9 JUMPI PUSH1 0x40 MLOAD PUSH32 0x8C379A000000000000000000000000000000000000000000000000000000000 DUP2 MSTORE PUSH1 0x4 ADD PUSH2 0xED0 SWAP1 PUSH2 0x1FB4 JUMP JUMPDEST PUSH1 0x40 MLOAD DUP1 SWAP2 SUB SWAP1 REVERT JUMPDEST PUSH1 0x32 DUP4 MLOAD GT ISZERO PUSH2 0xF1E JUMPI PUSH1 0x40 MLOAD PUSH32 0x8C379A000000000000000000000000000000000000000000000000000000000 DUP2 MSTORE PUSH1 0x4 ADD PUSH2 0xF15 SWAP1 PUSH2 0x201C JUMP JUMPDEST PUSH1 0x40 MLOAD DUP1 SWAP2 SUB SWAP1 REVERT JUMPDEST PUSH0 PUSH0 SWAP1 POP PUSH0 PUSH0 SWAP1 POP JUMPDEST DUP4 MLOAD DUP2 LT ISZERO PUSH2 0xF65 JUMPI DUP4 DUP2 DUP2 MLOAD DUP2 LT PUSH2 0xF43 JUMPI PUSH2 0xF42 PUSH2 0x203A JUMP JUMPDEST JUMPDEST PUSH1 0x20 MUL PUSH1 0x20 ADD ADD MLOAD DUP3 PUSH2 0xF56 SWAP2 SWAP1 PUSH2 0x1E67 JUMP JUMPDEST SWAP2 POP DUP1 DUP1 PUSH1 0x1 ADD SWAP2 POP POP PUSH2 0xF27 JUMP JUMPDEST POP DUP1 PUSH1 0x4 PUSH0 CALLER PUSH20 0xFFFFFFFFFFFFFFFFFFFFFFFFFFFFFFFFFFFFFFFF AND PUSH20 0xFFFFFFFFFFFFFFFFFFFFFFFFFFFFFFFFFFFFFFFF AND DUP2 MSTORE PUSH1 0x20 ADD SWAP1 DUP2 MSTORE PUSH1 0x20 ADD PUSH0 KECCAK256 SLOAD LT ISZERO PUSH2 0xFE6 JUMPI PUSH1 0x40 MLOAD PUSH32 0x8C379A000000000000000000000000000000000000000000000000000000000 DUP2 MSTORE PUSH1 0x4 ADD PUSH2 0xFDD SWAP1 PUSH2 0x1D81 JUMP JUMPDEST PUSH1 0x40 MLOAD DUP1 SWAP2 SUB SWAP1 REVERT JUMPDEST PUSH0 PUSH0 SWAP1 POP JUMPDEST DUP5 MLOAD DUP2 LT ISZERO PUSH2 0x10E5 JUMPI PUSH0 PUSH20 0xFFFFFFFFFFFFFFFFFFFFFFFFFFFFFFFFFFFFFFFF AND DUP6 DUP3 DUP2 MLOAD DUP2 LT PUSH2 0x101E JUMPI PUSH2 0x101D PUSH2 0x203A JUMP JUMPDEST JUMPDEST PUSH1 0x20 MUL PUSH1 0x20 ADD ADD MLOAD PUSH20 0xFFFFFFFFFFFFFFFFFFFFFFFFFFFFFFFFFFFFFFFF AND SUB PUSH2 0x107C JUMPI PUSH1 0x40 MLOAD PUSH32 0x8C379A000000000000000000000000000000000000000000000000000000000 DUP2 MSTORE PUSH1 0x4 ADD PUSH2 0x1073 SWAP1 PUSH2 0x20B1 JUMP JUMPDEST PUSH1 0x40 MLOAD DUP1 SWAP2 SUB SWAP1 REVERT JUMPDEST PUSH0 DUP5 DUP3 DUP2 MLOAD DUP2 LT PUSH2 0x1090 JUMPI PUSH2 0x108F PUSH2 0x203A JUMP JUMPDEST JUMPDEST PUSH1 0x20 MUL PUSH1 0x20 ADD ADD MLOAD GT PUSH2 0x10D8 JUMPI PUSH1 0x40 MLOAD PUSH32 0x8C379A000000000000000000000000000000000000000000000000000000000 DUP2 MSTORE PUSH1 0x4 ADD PUSH2 0x10CF SWAP1 PUSH2 0x2119 JUMP JUMPDEST PUSH1 0x40 MLOAD DUP1 SWAP2 SUB SWAP1 REVERT JUMPDEST DUP1 DUP1 PUSH1 0x1 ADD SWAP2 POP POP PUSH2 0xFEB JUMP JUMPDEST POP PUSH0 PUSH0 SWAP1 POP JUMPDEST DUP5 MLOAD DUP2 LT ISZERO PUSH2 0x128E JUMPI DUP4 DUP2 DUP2 MLOAD DUP2 LT PUSH2 0x1107 JUMPI PUSH2 0x1106 PUSH2 0x203A JUMP JUMPDEST JUMPDEST PUSH1 0x20 MUL PUSH1 0x20 ADD ADD MLOAD PUSH1 0x4 PUSH0 CALLER PUSH20 0xFFFFFFFFFFFFFFFFFFFFFFFFFFFFFFFFFFFFFFFF AND PUSH20 0xFFFFFFFFFFFFFFFFFFFFFFFFFFFFFFFFFFFFFFFF AND DUP2 MSTORE PUSH1 0x20 ADD SWAP1 DUP2 MSTORE PUSH1 0x20 ADD PUSH0 KECCAK256 PUSH0 DUP3 DUP3 SLOAD PUSH2 0x115A SWAP2 SWAP1 PUSH2 0x1E34 JUMP JUMPDEST SWAP3 POP POP DUP2 SWAP1 SSTORE POP DUP4 DUP2 DUP2 MLOAD DUP2 LT PUSH2 0x1174 JUMPI PUSH2 0x1173 PUSH2 0x203A JUMP JUMPDEST JUMPDEST PUSH1 0x20 MUL PUSH1 0x20 ADD ADD MLOAD PUSH1 0x4 PUSH0 DUP8 DUP5 DUP2 MLOAD DUP2 LT PUSH2 0x1192 JUMPI PUSH2 0x1191 PUSH2 0x203A JUMP JUMPDEST JUMPDEST PUSH1 0x20 MUL PUSH1 0x20 ADD ADD MLOAD PUSH20 0xFFFFFFFFFFFFFFFFFFFFFFFFFFFFFFFFFFFFFFFF AND PUSH20 0xFFFFFFFFFFFFFFFFFFFFFFFFFFFFFFFFFFFFFFFF AND DUP2 MSTORE PUSH1 0x20 ADD SWAP1 DUP2 MSTORE PUSH1 0x20 ADD PUSH0 KECCAK256 PUSH0 DUP3 DUP3 SLOAD PUSH2 0x11E1 SWAP2 SWAP1 PUSH2 0x1E67 JUMP JUMPDEST SWAP3 POP POP DUP2 SWAP1 SSTORE POP DUP5 DUP2 DUP2 MLOAD DUP2 LT PUSH2 0x11FB JUMPI PUSH2 0x11FA PUSH2 0x203A JUMP JUMPDEST JUMPDEST PUSH1 0x20 MUL PUSH1 0x20 ADD ADD MLOAD PUSH20 0xFFFFFFFFFFFFFFFFFFFFFFFFFFFFFFFFFFFFFFFF AND CALLER PUSH20 0xFFFFFFFFFFFFFFFFFFFFFFFFFFFFFFFFFFFFFFFF AND PUSH32 0xDDF252AD1BE2C89B69C2B068FC378DAA952BA7F163C4A11628F55A4DF523B3EF DUP7 DUP5 DUP2 MLOAD DUP2 LT PUSH2 0x1264 JUMPI PUSH2 0x1263 PUSH2 0x203A JUMP JUMPDEST JUMPDEST PUSH1 0x20 MUL PUSH1 0x20 ADD ADD MLOAD PUSH1 0x40 MLOAD PUSH2 0x1279 SWAP2 SWAP1 PUSH2 0x176B JUMP JUMPDEST PUSH1 0x40 MLOAD DUP1 SWAP2 SUB SWAP1 LOG3 DUP1 DUP1 PUSH1 0x1 ADD SWAP2 POP POP PUSH2 0x10EB JUMP JUMPDEST POP PUSH1 0x1 SWAP2 POP POP SWAP3 SWAP2 POP POP JUMP JUMPDEST PUSH32 0x0 DUP2 JUMP JUMPDEST PUSH1 0x1 DUP1 SLOAD PUSH2 0x12CB SWAP1 PUSH2 0x1B67 JUMP JUMPDEST DUP1 PUSH1 0x1F ADD PUSH1 0x20 DUP1 SWAP2 DIV MUL PUSH1 0x20 ADD PUSH1 0x40 MLOAD SWAP1 DUP2 ADD PUSH1 0x40 MSTORE DUP1 SWAP3 SWAP2 SWAP1 DUP2 DUP2 MSTORE PUSH1 0x20 ADD DUP3 DUP1 SLOAD PUSH2 0x12F7 SWAP1 PUSH2 0x1B67 JUMP JUMPDEST DUP1 ISZERO PUSH2 0x1342 JUMPI DUP1 PUSH1 0x1F LT PUSH2 0x1319 JUMPI PUSH2 0x100 DUP1 DUP4 SLOAD DIV MUL DUP4 MSTORE SWAP2 PUSH1 0x20 ADD SWAP2 PUSH2 0x1342 JUMP JUMPDEST DUP3 ADD SWAP2 SWAP1 PUSH0 MSTORE PUSH1 0x20 PUSH0 KECCAK256 SWAP1 JUMPDEST DUP2 SLOAD DUP2 MSTORE SWAP1 PUSH1 0x1 ADD SWAP1 PUSH1 0x20 ADD DUP1 DUP4 GT PUSH2 0x1325 JUMPI DUP3 SWAP1 SUB PUSH1 0x1F AND DUP3 ADD SWAP2 JUMPDEST POP POP POP POP POP DUP2 JUMP JUMPDEST PUSH0 PUSH1 0x6 PUSH0 SWAP1 SLOAD SWAP1 PUSH2 0x100 EXP SWAP1 DIV PUSH1 0xFF AND ISZERO PUSH2 0x139A JUMPI PUSH1 0x40 MLOAD PUSH32 0x8C379A000000000000000000000000000000000000000000000000000000000 DUP2 MSTORE PUSH1 0x4 ADD PUSH2 0x1391 SWAP1 PUSH2 0x1BE1 JUMP JUMPDEST PUSH1 0x40 MLOAD DUP1 SWAP2 SUB SWAP1 REVERT JUMPDEST PUSH0 PUSH20 0xFFFFFFFFFFFFFFFFFFFFFFFFFFFFFFFFFFFFFFFF AND DUP4 PUSH20 0xFFFFFFFFFFFFFFFFFFFFFFFFFFFFFFFFFFFFFFFF AND SUB PUSH2 0x1408 JUMPI PUSH1 0x40 MLOAD PUSH32 0x8C379A000000000000000000000000000000000000000000000000000000000 DUP2 MSTORE PUSH1 0x4 ADD PUSH2 0x13FF SWAP1 PUSH2 0x2181 JUMP JUMPDEST PUSH1 0x40 MLOAD DUP1 SWAP2 SUB SWAP1 REVERT JUMPDEST DUP2 PUSH1 0x4 PUSH0 CALLER PUSH20 0xFFFFFFFFFFFFFFFFFFFFFFFFFFFFFFFFFFFFFFFF AND PUSH20 0xFFFFFFFFFFFFFFFFFFFFFFFFFFFFFFFFFFFFFFFF AND DUP2 MSTORE PUSH1 0x20 ADD SWAP1 DUP2 MSTORE PUSH1 0x20 ADD PUSH0 KECCAK256 SLOAD LT ISZERO PUSH2 0x1488 JUMPI PUSH1 0x40 MLOAD PUSH32 0x8C379A000000000000000000000000000000000000000000000000000000000 DUP2 MSTORE PUSH1 0x4 ADD PUSH2 0x147F SWAP1 PUSH2 0x1D81 JUMP JUMPDEST PUSH1 0x40 MLOAD DUP1 SWAP2 SUB SWAP1 REVERT JUMPDEST DUP2 PUSH1 0x4 PUSH0 CALLER PUSH20 0xFFFFFFFFFFFFFFFFFFFFFFFFFFFFFFFFFFFFFFFF AND PUSH20 0xFFFFFFFFFFFFFFFFFFFFFFFFFFFFFFFFFFFFFFFF AND DUP2 MSTORE PUSH1 0x20 ADD SWAP1 DUP2 MSTORE PUSH1 0x20 ADD PUSH0 KECCAK256 PUSH0 DUP3 DUP3 SLOAD PUSH2 0x14D4 SWAP2 SWAP1 PUSH2 0x1E34 JUMP JUMPDEST SWAP3 POP POP DUP2 SWAP1 SSTORE POP DUP2 PUSH1 0x4 PUSH0 DUP6 PUSH20 0xFFFFFFFFFFFFFFFFFFFFFFFFFFFFFFFFFFFFFFFF AND PUSH20 0xFFFFFFFFFFFFFFFFFFFFFFFFFFFFFFFFFFFFFFFF AND DUP2 MSTORE PUSH1 0x20 ADD SWAP1 DUP2 MSTORE PUSH1 0x20 ADD PUSH0 KECCAK256 PUSH0 DUP3 DUP3 SLOAD PUSH2 0x1527 SWAP2 SWAP1 PUSH2 0x1E67 JUMP JUMPDEST SWAP3 POP POP DUP2 SWAP1 SSTORE POP DUP3 PUSH20 0xFFFFFFFFFFFFFFFFFFFFFFFFFFFFFFFFFFFFFFFF AND CALLER PUSH20 0xFFFFFFFFFFFFFFFFFFFFFFFFFFFFFFFFFFFFFFFF AND PUSH32 0xDDF252AD1BE2C89B69C2B068FC378DAA952BA7F163C4A11628F55A4DF523B3EF DUP5 PUSH1 0x40 MLOAD PUSH2 0x158B SWAP2 SWAP1 PUSH2 0x176B JUMP JUMPDEST PUSH1 0x40 MLOAD DUP1 SWAP2 SUB SWAP1 LOG3 PUSH1 0x1 SWAP1 POP SWAP3 SWAP2 POP POP JUMP JUMPDEST PUSH1 0x5 PUSH1 0x20 MSTORE DUP2 PUSH0 MSTORE PUSH1 0x40 PUSH0 KECCAK256 PUSH1 0x20 MSTORE DUP1 PUSH0 MSTORE PUSH1 0x40 PUSH0 KECCAK256 PUSH0 SWAP2 POP SWAP2 POP POP SLOAD DUP2 JUMP JUMPDEST PUSH0 DUP2 MLOAD SWAP1 POP SWAP2 SWAP1 POP JUMP JUMPDEST PUSH0 DUP3 DUP3 MSTORE PUSH1 0x20 DUP3 ADD SWAP1 POP SWAP3 SWAP2 POP POP JUMP JUMPDEST DUP3 DUP2 DUP4 MCOPY PUSH0 DUP4 DUP4 ADD MSTORE POP POP POP JUMP JUMPDEST PUSH0 PUSH1 0x1F NOT PUSH1 0x1F DUP4 ADD AND SWAP1 POP SWAP2 SWAP1 POP JUMP JUMPDEST PUSH0 PUSH2 0x15FF DUP3 PUSH2 0x15BD JUMP JUMPDEST PUSH2 0x1609 DUP2 DUP6 PUSH2 0x15C7 JUMP JUMPDEST SWAP4 POP PUSH2 0x1619 DUP2 DUP6 PUSH1 0x20 DUP7 ADD PUSH2 0x15D7 JUMP JUMPDEST PUSH2 0x1622 DUP2 PUSH2 0x15E5 JUMP JUMPDEST DUP5 ADD SWAP2 POP POP SWAP3 SWAP2 POP POP JUMP JUMPDEST PUSH0 PUSH1 0x20 DUP3 ADD SWAP1 POP DUP2 DUP2 SUB PUSH0 DUP4 ADD MSTORE PUSH2 0x1645 DUP2 DUP5 PUSH2 0x15F5 JUMP JUMPDEST SWAP1 POP SWAP3 SWAP2 POP POP JUMP JUMPDEST PUSH0 PUSH1 0x40 MLOAD SWAP1 POP SWAP1 JUMP JUMPDEST PUSH0 PUSH0 REVERT JUMPDEST PUSH0 PUSH0 REVERT JUMPDEST PUSH0 PUSH20 0xFFFFFFFFFFFFFFFFFFFFFFFFFFFFFFFFFFFFFFFF DUP3 AND SWAP1 POP SWAP2 SWAP1 POP JUMP JUMPDEST PUSH0 PUSH2 0x1687 DUP3 PUSH2 0x165E JUMP JUMPDEST SWAP1 POP SWAP2 SWAP1 POP JUMP JUMPDEST PUSH2 0x1697 DUP2 PUSH2 0x167D JUMP JUMPDEST DUP2 EQ PUSH2 0x16A1 JUMPI PUSH0 PUSH0 REVERT JUMPDEST POP JUMP JUMPDEST PUSH0 DUP2 CALLDATALOAD SWAP1 POP PUSH2 0x16B2 DUP2 PUSH2 0x168E JUMP JUMPDEST SWAP3 SWAP2 POP POP JUMP JUMPDEST PUSH0 DUP2 SWAP1 POP SWAP2 SWAP1 POP JUMP JUMPDEST PUSH2 0x16CA DUP2 PUSH2 0x16B8 JUMP JUMPDEST DUP2 EQ PUSH2 0x16D4 JUMPI PUSH0 PUSH0 REVERT JUMPDEST POP JUMP JUMPDEST PUSH0 DUP2 CALLDATALOAD SWAP1 POP PUSH2 0x16E5 DUP2 PUSH2 0x16C1 JUMP JUMPDEST SWAP3 SWAP2 POP POP JUMP JUMPDEST PUSH0 PUSH0 PUSH1 0x40 DUP4 DUP6 SUB SLT ISZERO PUSH2 0x1701 JUMPI PUSH2 0x1700 PUSH2 0x1656 JUMP JUMPDEST JUMPDEST PUSH0 PUSH2 0x170E DUP6 DUP3 DUP7 ADD PUSH2 0x16A4 JUMP JUMPDEST SWAP3 POP POP PUSH1 0x20 PUSH2 0x171F DUP6 DUP3 DUP7 ADD PUSH2 0x16D7 JUMP JUMPDEST SWAP2 POP POP SWAP3 POP SWAP3 SWAP1 POP JUMP JUMPDEST PUSH0 DUP2 ISZERO ISZERO SWAP1 POP SWAP2 SWAP1 POP JUMP JUMPDEST PUSH2 0x173D DUP2 PUSH2 0x1729 JUMP JUMPDEST DUP3 MSTORE POP POP JUMP JUMPDEST PUSH0 PUSH1 0x20 DUP3 ADD SWAP1 POP PUSH2 0x1756 PUSH0 DUP4 ADD DUP5 PUSH2 0x1734 JUMP JUMPDEST SWAP3 SWAP2 POP POP JUMP JUMPDEST PUSH2 0x1765 DUP2 PUSH2 0x16B8 JUMP JUMPDEST DUP3 MSTORE POP POP JUMP JUMPDEST PUSH0 PUSH1 0x20 DUP3 ADD SWAP1 POP PUSH2 0x177E PUSH0 DUP4 ADD DUP5 PUSH2 0x175C JUMP JUMPDEST SWAP3 SWAP2 POP POP JUMP JUMPDEST PUSH0 PUSH0 PUSH0 PUSH1 0x60 DUP5 DUP7 SUB SLT ISZERO PUSH2 0x179B JUMPI PUSH2 0x179A PUSH2 0x1656 JUMP JUMPDEST JUMPDEST PUSH0 PUSH2 0x17A8 DUP7 DUP3 DUP8 ADD PUSH2 0x16A4 JUMP JUMPDEST SWAP4 POP POP PUSH1 0x20 PUSH2 0x17B9 DUP7 DUP3 DUP8 ADD PUSH2 0x16A4 JUMP JUMPDEST SWAP3 POP POP PUSH1 0x40 PUSH2 0x17CA DUP7 DUP3 DUP8 ADD PUSH2 0x16D7 JUMP JUMPDEST SWAP2 POP POP SWAP3 POP SWAP3 POP SWAP3 JUMP JUMPDEST PUSH0 PUSH1 0xFF DUP3 AND SWAP1 POP SWAP2 SWAP1 POP JUMP JUMPDEST PUSH2 0x17E9 DUP2 PUSH2 0x17D4 JUMP JUMPDEST DUP3 MSTORE POP POP JUMP JUMPDEST PUSH0 PUSH1 0x20 DUP3 ADD SWAP1 POP PUSH2 0x1802 PUSH0 DUP4 ADD DUP5 PUSH2 0x17E0 JUMP JUMPDEST SWAP3 SWAP2 POP POP JUMP JUMPDEST PUSH0 PUSH1 0x20 DUP3 DUP5 SUB SLT ISZERO PUSH2 0x181D JUMPI PUSH2 0x181C PUSH2 0x1656 JUMP JUMPDEST JUMPDEST PUSH0 PUSH2 0x182A DUP5 DUP3 DUP6 ADD PUSH2 0x16D7 JUMP JUMPDEST SWAP2 POP POP SWAP3 SWAP2 POP POP JUMP JUMPDEST PUSH0 PUSH1 0x20 DUP3 DUP5 SUB SLT ISZERO PUSH2 0x1848 JUMPI PUSH2 0x1847 PUSH2 0x1656 JUMP JUMPDEST JUMPDEST PUSH0 PUSH2 0x1855 DUP5 DUP3 DUP6 ADD PUSH2 0x16A4 JUMP JUMPDEST SWAP2 POP POP SWAP3 SWAP2 POP POP JUMP JUMPDEST PUSH0 PUSH0 REVERT JUMPDEST PUSH32 0x4E487B7100000000000000000000000000000000000000000000000000000000 PUSH0 MSTORE PUSH1 0x41 PUSH1 0x4 MSTORE PUSH1 0x24 PUSH0 REVERT JUMPDEST PUSH2 0x1898 DUP3 PUSH2 0x15E5 JUMP JUMPDEST DUP2 ADD DUP2 DUP2 LT PUSH8 0xFFFFFFFFFFFFFFFF DUP3 GT OR ISZERO PUSH2 0x18B7 JUMPI PUSH2 0x18B6 PUSH2 0x1862 JUMP JUMPDEST JUMPDEST DUP1 PUSH1 0x40 MSTORE POP POP POP JUMP JUMPDEST PUSH0 PUSH2 0x18C9 PUSH2 0x164D JUMP JUMPDEST SWAP1 POP PUSH2 0x18D5 DUP3 DUP3 PUSH2 0x188F JUMP JUMPDEST SWAP2 SWAP1 POP JUMP JUMPDEST PUSH0 PUSH8 0xFFFFFFFFFFFFFFFF DUP3 GT ISZERO PUSH2 0x18F4 JUMPI PUSH2 0x18F3 PUSH2 0x1862 JUMP JUMPDEST JUMPDEST PUSH1 0x20 DUP3 MUL SWAP1 POP PUSH1 0x20 DUP2 ADD SWAP1 POP SWAP2 SWAP1 POP JUMP JUMPDEST PUSH0 PUSH0 REVERT JUMPDEST PUSH0 PUSH2 0x191B PUSH2 0x1916 DUP5 PUSH2 0x18DA JUMP JUMPDEST PUSH2 0x18C0 JUMP JUMPDEST SWAP1 POP DUP1 DUP4 DUP3 MSTORE PUSH1 0x20 DUP3 ADD SWAP1 POP PUSH1 0x20 DUP5 MUL DUP4 ADD DUP6 DUP2 GT ISZERO PUSH2 0x193E JUMPI PUSH2 0x193D PUSH2 0x1905 JUMP JUMPDEST JUMPDEST DUP4 JUMPDEST DUP2 DUP2 LT ISZERO PUSH2 0x1967 JUMPI DUP1 PUSH2 0x1953 DUP9 DUP3 PUSH2 0x16A4 JUMP JUMPDEST DUP5 MSTORE PUSH1 0x20 DUP5 ADD SWAP4 POP POP PUSH1 0x20 DUP2 ADD SWAP1 POP PUSH2 0x1940 JUMP JUMPDEST POP POP POP SWAP4 SWAP3 POP POP POP JUMP JUMPDEST PUSH0 DUP3 PUSH1 0x1F DUP4 ADD SLT PUSH2 0x1985 JUMPI PUSH2 0x1984 PUSH2 0x185E JUMP JUMPDEST JUMPDEST DUP2 CALLDATALOAD PUSH2 0x1995 DUP5 DUP3 PUSH1 0x20 DUP7 ADD PUSH2 0x1909 JUMP JUMPDEST SWAP2 POP POP SWAP3 SWAP2 POP POP JUMP JUMPDEST PUSH0 PUSH8 0xFFFFFFFFFFFFFFFF DUP3 GT ISZERO PUSH2 0x19B8 JUMPI PUSH2 0x19B7 PUSH2 0x1862 JUMP JUMPDEST JUMPDEST PUSH1 0x20 DUP3 MUL SWAP1 POP PUSH1 0x20 DUP2 ADD SWAP1 POP SWAP2 SWAP1 POP JUMP JUMPDEST PUSH0 PUSH2 0x19DB PUSH2 0x19D6 DUP5 PUSH2 0x199E JUMP JUMPDEST PUSH2 0x18C0 JUMP JUMPDEST SWAP1 POP DUP1 DUP4 DUP3 MSTORE PUSH1 0x20 DUP3 ADD SWAP1 POP PUSH1 0x20 DUP5 MUL DUP4 ADD DUP6 DUP2 GT ISZERO PUSH2 0x19FE JUMPI PUSH2 0x19FD PUSH2 0x1905 JUMP JUMPDEST JUMPDEST DUP4 JUMPDEST DUP2 DUP2 LT ISZERO PUSH2 0x1A27 JUMPI DUP1 PUSH2 0x1A13 DUP9 DUP3 PUSH2 0x16D7 JUMP JUMPDEST DUP5 MSTORE PUSH1 0x20 DUP5 ADD SWAP4 POP POP PUSH1 0x20 DUP2 ADD SWAP1 POP PUSH2 0x1A00 JUMP JUMPDEST POP POP POP SWAP4 SWAP3 POP POP POP JUMP JUMPDEST PUSH0 DUP3 PUSH1 0x1F DUP4 ADD SLT PUSH2 0x1A45 JUMPI PUSH2 0x1A44 PUSH2 0x185E JUMP JUMPDEST JUMPDEST DUP2 CALLDATALOAD PUSH2 0x1A55 DUP5 DUP3 PUSH1 0x20 DUP7 ADD PUSH2 0x19C9 JUMP JUMPDEST SWAP2 POP POP SWAP3 SWAP2 POP POP JUMP JUMPDEST PUSH0 PUSH0 PUSH1 0x40 DUP4 DUP6 SUB SLT ISZERO PUSH2 0x1A74 JUMPI PUSH2 0x1A73 PUSH2 0x1656 JUMP JUMPDEST JUMPDEST PUSH0 DUP4 ADD CALLDATALOAD PUSH8 0xFFFFFFFFFFFFFFFF DUP2 GT ISZERO PUSH2 0x1A91 JUMPI PUSH2 0x1A90 PUSH2 0x165A JUMP JUMPDEST JUMPDEST PUSH2 0x1A9D DUP6 DUP3 DUP7 ADD PUSH2 0x1971 JUMP JUMPDEST SWAP3 POP POP PUSH1 0x20 DUP4 ADD CALLDATALOAD PUSH8 0xFFFFFFFFFFFFFFFF DUP2 GT ISZERO PUSH2 0x1ABE JUMPI PUSH2 0x1ABD PUSH2 0x165A JUMP JUMPDEST JUMPDEST PUSH2 0x1ACA DUP6 DUP3 DUP7 ADD PUSH2 0x1A31 JUMP JUMPDEST SWAP2 POP POP SWAP3 POP SWAP3 SWAP1 POP JUMP JUMPDEST PUSH2 0x1ADD DUP2 PUSH2 0x167D JUMP JUMPDEST DUP3 MSTORE POP POP JUMP JUMPDEST PUSH0 PUSH1 0x20 DUP3 ADD SWAP1 POP PUSH2 0x1AF6 PUSH0 DUP4 ADD DUP5 PUSH2 0x1AD4 JUMP JUMPDEST SWAP3 SWAP2 POP POP JUMP JUMPDEST PUSH0 PUSH0 PUSH1 0x40 DUP4 DUP6 SUB SLT ISZERO PUSH2 0x1B12 JUMPI PUSH2 0x1B11 PUSH2 0x1656 JUMP JUMPDEST JUMPDEST PUSH0 PUSH2 0x1B1F DUP6 DUP3 DUP7 ADD PUSH2 0x16A4 JUMP JUMPDEST SWAP3 POP POP PUSH1 0x20 PUSH2 0x1B30 DUP6 DUP3 DUP7 ADD PUSH2 0x16A4 JUMP JUMPDEST SWAP2 POP POP SWAP3 POP SWAP3 SWAP1 POP JUMP JUMPDEST PUSH32 0x4E487B7100000000000000000000000000000000000000000000000000000000 PUSH0 MSTORE PUSH1 0x22 PUSH1 0x4 MSTORE PUSH1 0x24 PUSH0 REVERT JUMPDEST PUSH0 PUSH1 0x2 DUP3 DIV SWAP1 POP PUSH1 0x1 DUP3 AND DUP1 PUSH2 0x1B7E JUMPI PUSH1 0x7F DUP3 AND SWAP2 POP JUMPDEST PUSH1 0x20 DUP3 LT DUP2 SUB PUSH2 0x1B91 JUMPI PUSH2 0x1B90 PUSH2 0x1B3A JUMP JUMPDEST JUMPDEST POP SWAP2 SWAP1 POP JUMP JUMPDEST PUSH32 0x436F6E7472616374206973207061757365640000000000000000000000000000 PUSH0 DUP3 ADD MSTORE POP JUMP JUMPDEST PUSH0 PUSH2 0x1BCB PUSH1 0x12 DUP4 PUSH2 0x15C7 JUMP JUMPDEST SWAP2 POP PUSH2 0x1BD6 DUP3 PUSH2 0x1B97 JUMP JUMPDEST PUSH1 0x20 DUP3 ADD SWAP1 POP SWAP2 SWAP1 POP JUMP JUMPDEST PUSH0 PUSH1 0x20 DUP3 ADD SWAP1 POP DUP2 DUP2 SUB PUSH0 DUP4 ADD MSTORE PUSH2 0x1BF8 DUP2 PUSH2 0x1BBF JUMP JUMPDEST SWAP1 POP SWAP2 SWAP1 POP JUMP JUMPDEST PUSH32 0x43616E6E6F7420617070726F7665207A65726F20616464726573730000000000 PUSH0 DUP3 ADD MSTORE POP JUMP JUMPDEST PUSH0 PUSH2 0x1C33 PUSH1 0x1B DUP4 PUSH2 0x15C7 JUMP JUMPDEST SWAP2 POP PUSH2 0x1C3E DUP3 PUSH2 0x1BFF JUMP JUMPDEST PUSH1 0x20 DUP3 ADD SWAP1 POP SWAP2 SWAP1 POP JUMP JUMPDEST PUSH0 PUSH1 0x20 DUP3 ADD SWAP1 POP DUP2 DUP2 SUB PUSH0 DUP4 ADD MSTORE PUSH2 0x1C60 DUP2 PUSH2 0x1C27 JUMP JUMPDEST SWAP1 POP SWAP2 SWAP1 POP JUMP JUMPDEST PUSH32 0x46726F6D207A65726F0000000000000000000000000000000000000000000000 PUSH0 DUP3 ADD MSTORE POP JUMP JUMPDEST PUSH0 PUSH2 0x1C9B PUSH1 0x9 DUP4 PUSH2 0x15C7 JUMP JUMPDEST SWAP2 POP PUSH2 0x1CA6 DUP3 PUSH2 0x1C67 JUMP JUMPDEST PUSH1 0x20 DUP3 ADD SWAP1 POP SWAP2 SWAP1 POP JUMP JUMPDEST PUSH0 PUSH1 0x20 DUP3 ADD SWAP1 POP DUP2 DUP2 SUB PUSH0 DUP4 ADD MSTORE PUSH2 0x1CC8 DUP2 PUSH2 0x1C8F JUMP JUMPDEST SWAP1 POP SWAP2 SWAP1 POP JUMP JUMPDEST PUSH32 0x546F207A65726F00000000000000000000000000000000000000000000000000 PUSH0 DUP3 ADD MSTORE POP JUMP JUMPDEST PUSH0 PUSH2 0x1D03 PUSH1 0x7 DUP4 PUSH2 0x15C7 JUMP JUMPDEST SWAP2 POP PUSH2 0x1D0E DUP3 PUSH2 0x1CCF JUMP JUMPDEST PUSH1 0x20 DUP3 ADD SWAP1 POP SWAP2 SWAP1 POP JUMP JUMPDEST PUSH0 PUSH1 0x20 DUP3 ADD SWAP1 POP DUP2 DUP2 SUB PUSH0 DUP4 ADD MSTORE PUSH2 0x1D30 DUP2 PUSH2 0x1CF7 JUMP JUMPDEST SWAP1 POP SWAP2 SWAP1 POP JUMP JUMPDEST PUSH32 0x496E73756666696369656E742062616C616E6365000000000000000000000000 PUSH0 DUP3 ADD MSTORE POP JUMP JUMPDEST PUSH0 PUSH2 0x1D6B PUSH1 0x14 DUP4 PUSH2 0x15C7 JUMP JUMPDEST SWAP2 POP PUSH2 0x1D76 DUP3 PUSH2 0x1D37 JUMP JUMPDEST PUSH1 0x20 DUP3 ADD SWAP1 POP SWAP2 SWAP1 POP JUMP JUMPDEST PUSH0 PUSH1 0x20 DUP3 ADD SWAP1 POP DUP2 DUP2 SUB PUSH0 DUP4 ADD MSTORE PUSH2 0x1D98 DUP2 PUSH2 0x1D5F JUMP JUMPDEST SWAP1 POP SWAP2 SWAP1 POP JUMP JUMPDEST PUSH32 0x496E73756666696369656E7420616C6C6F77616E636500000000000000000000 PUSH0 DUP3 ADD MSTORE POP JUMP JUMPDEST PUSH0 PUSH2 0x1DD3 PUSH1 0x16 DUP4 PUSH2 0x15C7 JUMP JUMPDEST SWAP2 POP PUSH2 0x1DDE DUP3 PUSH2 0x1D9F JUMP JUMPDEST PUSH1 0x20 DUP3 ADD SWAP1 POP SWAP2 SWAP1 POP JUMP JUMPDEST PUSH0 PUSH1 0x20 DUP3 ADD SWAP1 POP DUP2 DUP2 SUB PUSH0 DUP4 ADD MSTORE PUSH2 0x1E00 DUP2 PUSH2 0x1DC7 JUMP JUMPDEST SWAP1 POP SWAP2 SWAP1 POP JUMP JUMPDEST PUSH32 0x4E487B7100000000000000000000000000000000000000000000000000000000 PUSH0 MSTORE PUSH1 0x11 PUSH1 0x4 MSTORE PUSH1 0x24 PUSH0 REVERT JUMPDEST PUSH0 PUSH2 0x1E3E DUP3 PUSH2 0x16B8 JUMP JUMPDEST SWAP2 POP PUSH2 0x1E49 DUP4 PUSH2 0x16B8 JUMP JUMPDEST SWAP3 POP DUP3 DUP3 SUB SWAP1 POP DUP2 DUP2 GT ISZERO PUSH2 0x1E61 JUMPI PUSH2 0x1E60 PUSH2 0x1E07 JUMP JUMPDEST JUMPDEST SWAP3 SWAP2 POP POP JUMP JUMPDEST PUSH0 PUSH2 0x1E71 DUP3 PUSH2 0x16B8 JUMP JUMPDEST SWAP2 POP PUSH2 0x1E7C DUP4 PUSH2 0x16B8 JUMP JUMPDEST SWAP3 POP DUP3 DUP3 ADD SWAP1 POP DUP1 DUP3 GT ISZERO PUSH2 0x1E94 JUMPI PUSH2 0x1E93 PUSH2 0x1E07 JUMP JUMPDEST JUMPDEST SWAP3 SWAP2 POP POP JUMP JUMPDEST PUSH32 0x4F6E6C79206F776E65722063616E2063616C6C20746869730000000000000000 PUSH0 DUP3 ADD MSTORE POP JUMP JUMPDEST PUSH0 PUSH2 0x1ECE PUSH1 0x18 DUP4 PUSH2 0x15C7 JUMP JUMPDEST SWAP2 POP PUSH2 0x1ED9 DUP3 PUSH2 0x1E9A JUMP JUMPDEST PUSH1 0x20 DUP3 ADD SWAP1 POP SWAP2 SWAP1 POP JUMP JUMPDEST PUSH0 PUSH1 0x20 DUP3 ADD SWAP1 POP DUP2 DUP2 SUB PUSH0 DUP4 ADD MSTORE PUSH2 0x1EFB DUP2 PUSH2 0x1EC2 JUMP JUMPDEST SWAP1 POP SWAP2 SWAP1 POP JUMP JUMPDEST PUSH32 0x43616E6E6F74206D696E7420746F207A65726F20616464726573730000000000 PUSH0 DUP3 ADD MSTORE POP JUMP JUMPDEST PUSH0 PUSH2 0x1F36 PUSH1 0x1B DUP4 PUSH2 0x15C7 JUMP JUMPDEST SWAP2 POP PUSH2 0x1F41 DUP3 PUSH2 0x1F02 JUMP JUMPDEST PUSH1 0x20 DUP3 ADD SWAP1 POP SWAP2 SWAP1 POP JUMP JUMPDEST PUSH0 PUSH1 0x20 DUP3 ADD SWAP1 POP DUP2 DUP2 SUB PUSH0 DUP4 ADD MSTORE PUSH2 0x1F63 DUP2 PUSH2 0x1F2A JUMP JUMPDEST SWAP1 POP SWAP2 SWAP1 POP JUMP JUMPDEST PUSH32 0x4C656E677468206D69736D617463680000000000000000000000000000000000 PUSH0 DUP3 ADD MSTORE POP JUMP JUMPDEST PUSH0 PUSH2 0x1F9E PUSH1 0xF DUP4 PUSH2 0x15C7 JUMP JUMPDEST SWAP2 POP PUSH2 0x1FA9 DUP3 PUSH2 0x1F6A JUMP JUMPDEST PUSH1 0x20 DUP3 ADD SWAP1 POP SWAP2 SWAP1 POP JUMP JUMPDEST PUSH0 PUSH1 0x20 DUP3 ADD SWAP1 POP DUP2 DUP2 SUB PUSH0 DUP4 ADD MSTORE PUSH2 0x1FCB DUP2 PUSH2 0x1F92 JUMP JUMPDEST SWAP1 POP SWAP2 SWAP1 POP JUMP JUMPDEST PUSH32 0x426174636820746F6F206C617267650000000000000000000000000000000000 PUSH0 DUP3 ADD MSTORE POP JUMP JUMPDEST PUSH0 PUSH2 0x2006 PUSH1 0xF DUP4 PUSH2 0x15C7 JUMP JUMPDEST SWAP2 POP PUSH2 0x2011 DUP3 PUSH2 0x1FD2 JUMP JUMPDEST PUSH1 0x20 DUP3 ADD SWAP1 POP SWAP2 SWAP1 POP JUMP JUMPDEST PUSH0 PUSH1 0x20 DUP3 ADD SWAP1 POP DUP2 DUP2 SUB PUSH0 DUP4 ADD MSTORE PUSH2 0x2033 DUP2 PUSH2 0x1FFA JUMP JUMPDEST SWAP1 POP SWAP2 SWAP1 POP JUMP JUMPDEST PUSH32 0x4E487B7100000000000000000000000000000000000000000000000000000000 PUSH0 MSTORE PUSH1 0x32 PUSH1 0x4 MSTORE PUSH1 0x24 PUSH0 REVERT JUMPDEST PUSH32 0x496E76616C696420616464726573730000000000000000000000000000000000 PUSH0 DUP3 ADD MSTORE POP JUMP JUMPDEST PUSH0 PUSH2 0x209B PUSH1 0xF DUP4 PUSH2 0x15C7 JUMP JUMPDEST SWAP2 POP PUSH2 0x20A6 DUP3 PUSH2 0x2067 JUMP JUMPDEST PUSH1 0x20 DUP3 ADD SWAP1 POP SWAP2 SWAP1 POP JUMP JUMPDEST PUSH0 PUSH1 0x20 DUP3 ADD SWAP1 POP DUP2 DUP2 SUB PUSH0 DUP4 ADD MSTORE PUSH2 0x20C8 DUP2 PUSH2 0x208F JUMP JUMPDEST SWAP1 POP SWAP2 SWAP1 POP JUMP JUMPDEST PUSH32 0x496E76616C696420616D6F756E74000000000000000000000000000000000000 PUSH0 DUP3 ADD MSTORE POP JUMP JUMPDEST PUSH0 PUSH2 0x2103 PUSH1 0xE DUP4 PUSH2 0x15C7 JUMP JUMPDEST SWAP2 POP PUSH2 0x210E DUP3 PUSH2 0x20CF JUMP JUMPDEST PUSH1 0x20 DUP3 ADD SWAP1 POP SWAP2 SWAP1 POP JUMP JUMPDEST PUSH0 PUSH1 0x20 DUP3 ADD SWAP1 POP DUP2 DUP2 SUB PUSH0 DUP4 ADD MSTORE PUSH2 0x2130 DUP2 PUSH2 0x20F7 JUMP JUMPDEST SWAP1 POP SWAP2 SWAP1 POP JUMP JUMPDEST PUSH32 0x43616E6E6F74207472616E7366657220746F207A65726F206164647265737300 PUSH0 DUP3 ADD MSTORE POP JUMP JUMPDEST PUSH0 PUSH2 0x216B PUSH1 0x1F DUP4 PUSH2 0x15C7 JUMP JUMPDEST SWAP2 POP PUSH2 0x2176 DUP3 PUSH2 0x2137 JUMP JUMPDEST PUSH1 0x20 DUP3 ADD SWAP1 POP SWAP2 SWAP1 POP JUMP JUMPDEST PUSH0 PUSH1 0x20 DUP3 ADD SWAP1 POP DUP2 DUP2 SUB PUSH0 DUP4 ADD MSTORE PUSH2 0x2198 DUP2 PUSH2 0x215F JUMP JUMPDEST SWAP1 POP SWAP2 SWAP1 POP JUMP INVALID LOG2 PUSH5 0x6970667358 0x22 SLT KECCAK256 PREVRANDAO 0xDF GAS 0xBC CALLVALUE BLOCKHASH MSTORE SLOAD JUMPF 0xED73 0xD9 EQ 0xD5 0x2B MUL 0xDC PUSH8 0xE676D5B728EA755C SWAP16 0xD2 0xAE RETURNDATACOPY EXTDELEGATECALL 0x2E PUSH5 0x736F6C6343 STOP ADDMOD 0x1E STOP CALLER "
		},
		"gasEstimates": {
			"creation": {
				"codeDepositCost": "1732200",
				"executionCost": "infinite",
				"totalCost": "infinite"
			},
			"external": {
				"RECIPIENTS_MAX()": "348",
				"allowance(address,address)": "infinite",
				"approve(address,uint256)": "infinite",
				"balanceOf(address)": "2869",
				"batchTransfer(address[],uint256[])": "infinite",
				"burn(uint256)": "infinite",
				"decimals()": "2511",
				"mint(address,uint256)": "infinite",
				"name()": "infinite",
				"owner()": "infinite",
				"pause()": "infinite",
				"paused()": "2511",
				"symbol()": "infinite",
				"totalSupply()": "2493",
				"transfer(address,uint256)": "infinite",
				"transferFrom(address,address,uint256)": "infinite",
				"unpause()": "infinite"
			}
		},
		"methodIdentifiers": {
			"RECIPIENTS_MAX()": "295d0ee8",
			"allowance(address,address)": "dd62ed3e",
			"approve(address,uint256)": "095ea7b3",
			"balanceOf(address)": "70a08231",
			"batchTransfer(address[],uint256[])": "88d695b2",
			"burn(uint256)": "42966c68",
			"decimals()": "313ce567",
			"mint(address,uint256)": "40c10f19",
			"name()": "06fdde03",
			"owner()": "8da5cb5b",
			"pause()": "8456cb59",
			"paused()": "5c975abb",
			"symbol()": "95d89b41",
			"totalSupply()": "18160ddd",
			"transfer(address,uint256)": "a9059cbb",
			"transferFrom(address,address,uint256)": "23b872dd",
			"unpause()": "3f4ba83a"
		}
	},
	"abi": [
		{
			"inputs": [
				{
					"internalType": "string",
					"name": "_name",
					"type": "string"
				},
				{
					"internalType": "string",
					"name": "_symbol",
					"type": "string"
				},
				{
					"internalType": "uint8",
					"name": "_decimals",
					"type": "uint8"
				},
				{
					"internalType": "uint256",
					"name": "_initialSupply",
					"type": "uint256"
				}
			],
			"stateMutability": "nonpayable",
			"type": "constructor"
		},
		{
			"anonymous": false,
			"inputs": [
				{
					"indexed": true,
					"internalType": "address",
					"name": "owner",
					"type": "address"
				},
				{
					"indexed": true,
					"internalType": "address",
					"name": "spender",
					"type": "address"
				},
				{
					"indexed": false,
					"internalType": "uint256",
					"name": "value",
					"type": "uint256"
				}
			],
			"name": "Approval",
			"type": "event"
		},
		{
			"anonymous": false,
			"inputs": [
				{
					"indexed": true,
					"internalType": "address",
					"name": "from",
					"type": "address"
				},
				{
					"indexed": true,
					"internalType": "address",
					"name": "to",
					"type": "address"
				},
				{
					"indexed": false,
					"internalType": "uint256",
					"name": "value",
					"type": "uint256"
				}
			],
			"name": "Transfer",
			"type": "event"
		},
		{
			"inputs": [],
			"name": "RECIPIENTS_MAX",
			"outputs": [
				{
					"internalType": "uint256",
					"name": "",
					"type": "uint256"
				}
			],
			"stateMutability": "view",
			"type": "function"
		},
		{
			"inputs": [
				{
					"internalType": "address",
					"name": "",
					"type": "address"
				},
				{
					"internalType": "address",
					"name": "",
					"type": "address"
				}
			],
			"name": "allowance",
			"outputs": [
				{
					"internalType": "uint256",
					"name": "",
					"type": "uint256"
				}
			],
			"stateMutability": "view",
			"type": "function"
		},
		{
			"inputs": [
				{
					"internalType": "address",
					"name": "spender",
					"type": "address"
				},
				{
					"internalType": "uint256",
					"name": "amount",
					"type": "uint256"
				}
			],
			"name": "approve",
			"outputs": [
				{
					"internalType": "bool",
					"name": "",
					"type": "bool"
				}
			],
			"stateMutability": "nonpayable",
			"type": "function"
		},
		{
			"inputs": [
				{
					"internalType": "address",
					"name": "",
					"type": "address"
				}
			],
			"name": "balanceOf",
			"outputs": [
				{
					"internalType": "uint256",
					"name": "",
					"type": "uint256"
				}
			],
			"stateMutability": "view",
			"type": "function"
		},
		{
			"inputs": [
				{
					"internalType": "address[]",
					"name": "recipients",
					"type": "address[]"
				},
				{
					"internalType": "uint256[]",
					"name": "amounts",
					"type": "uint256[]"
				}
			],
			"name": "batchTransfer",
			"outputs": [
				{
					"internalType": "bool",
					"name": "",
					"type": "bool"
				}
			],
			"stateMutability": "nonpayable",
			"type": "function"
		},
		{
			"inputs": [
				{
					"internalType": "uint256",
					"name": "amount",
					"type": "uint256"
				}
			],
			"name": "burn",
			"outputs": [],
			"stateMutability": "nonpayable",
			"type": "function"
		},
		{
			"inputs": [],
			"name": "decimals",
			"outputs": [
				{
					"internalType": "uint8",
					"name": "",
					"type": "uint8"
				}
			],
			"stateMutability": "view",
			"type": "function"
		},
		{
			"inputs": [
				{
					"internalType": "address",
					"name": "to",
					"type": "address"
				},
				{
					"internalType": "uint256",
					"name": "amount",
					"type": "uint256"
				}
			],
			"name": "mint",
			"outputs": [],
			"stateMutability": "nonpayable",
			"type": "function"
		},
		{
			"inputs": [],
			"name": "name",
			"outputs": [
				{
					"internalType": "string",
					"name": "",
					"type": "string"
				}
			],
			"stateMutability": "view",
			"type": "function"
		},
		{
			"inputs": [],
			"name": "owner",
			"outputs": [
				{
					"internalType": "address",
					"name": "",
					"type": "address"
				}
			],
			"stateMutability": "view",
			"type": "function"
		},
		{
			"inputs": [],
			"name": "pause",
			"outputs": [],
			"stateMutability": "nonpayable",
			"type": "function"
		},
		{
			"inputs": [],
			"name": "paused",
			"outputs": [
				{
					"internalType": "bool",
					"name": "",
					"type": "bool"
				}
			],
			"stateMutability": "view",
			"type": "function"
		},
		{
			"inputs": [],
			"name": "symbol",
			"outputs": [
				{
					"internalType": "string",
					"name": "",
					"type": "string"
				}
			],
			"stateMutability": "view",
			"type": "function"
		},
		{
			"inputs": [],
			"name": "totalSupply",
			"outputs": [
				{
					"internalType": "uint256",
					"name": "",
					"type": "uint256"
				}
			],
			"stateMutability": "view",
			"type": "function"
		},
		{
			"inputs": [
				{
					"internalType": "address",
					"name": "to",
					"type": "address"
				},
				{
					"internalType": "uint256",
					"name": "amount",
					"type": "uint256"
				}
			],
			"name": "transfer",
			"outputs": [
				{
					"internalType": "bool",
					"name": "",
					"type": "bool"
				}
			],
			"stateMutability": "nonpayable",
			"type": "function"
		},
		{
			"inputs": [
				{
					"internalType": "address",
					"name": "from",
					"type": "address"
				},
				{
					"internalType": "address",
					"name": "to",
					"type": "address"
				},
				{
					"internalType": "uint256",
					"name": "amount",
					"type": "uint256"
				}
			],
			"name": "transferFrom",
			"outputs": [
				{
					"internalType": "bool",
					"name": "",
					"type": "bool"
				}
			],
			"stateMutability": "nonpayable",
			"type": "function"
		},
		{
			"inputs": [],
			"name": "unpause",
			"outputs": [],
			"stateMutability": "nonpayable",
			"type": "function"
		}
	]
}