{
	"data": {
		"bytecode": {
			"linkReferences": {},
			"object": "6080604052348015600e575f5ffd5b506106918061001c5f395ff3fe608060405234801561000f575f5ffd5b506004361061004a575f3560e01c80633af32abf1461004e5780638ab1d6811461007e57806399db89b51461009a578063e43252d7146100b8575b5f5ffd5b61006860048036038101906100639190610432565b6100d4565b6040516100759190610477565b60405180910390f35b61009860048036038101906100939190610432565b6100ef565b005b6100a2610144565b6040516100af91906104a8565b60405180910390f35b6100d260048036038101906100cd9190610432565b610153565b005b5f6100e8825f6101a890919063ffffffff16565b9050919050565b610102815f6101d590919063ffffffff16565b610141576040517f08c379a00000000000000000000000000000000000000000000000000000000081526004016101389061051b565b60405180910390fd5b50565b5f61014e5f610202565b905090565b610166815f61021590919063ffffffff16565b6101a5576040517f08c379a000000000000000000000000000000000000000000000000000000000815260040161019c90610583565b60405180910390fd5b50565b5f6101cd835f018373ffffffffffffffffffffffffffffffffffffffff165f1b610242565b905092915050565b5f6101fa835f018373ffffffffffffffffffffffffffffffffffffffff165f1b610262565b905092915050565b5f61020e825f0161035e565b9050919050565b5f61023a835f018373ffffffffffffffffffffffffffffffffffffffff165f1b61036d565b905092915050565b5f5f836001015f8481526020019081526020015f20541415905092915050565b5f5f836001015f8481526020019081526020015f205490505f8114610353575f60018261028f91906105ce565b90505f6001865f01805490506102a591906105ce565b905080821461030b575f865f0182815481106102c4576102c3610601565b5b905f5260205f200154905080875f0184815481106102e5576102e4610601565b5b905f5260205f20018190555083876001015f8381526020019081526020015f2081905550505b855f0180548061031e5761031d61062e565b5b600190038181905f5260205f20015f90559055856001015f8681526020019081526020015f205f905560019350505050610358565b5f9150505b92915050565b5f815f01805490509050919050565b5f6103788383610242565b6103ca57825f0182908060018154018082558091505060019003905f5260205f20015f9091909190915055825f0180549050836001015f8481526020019081526020015f2081905550600190506103ce565b5f90505b92915050565b5f5ffd5b5f73ffffffffffffffffffffffffffffffffffffffff82169050919050565b5f610401826103d8565b9050919050565b610411816103f7565b811461041b575f5ffd5b50565b5f8135905061042c81610408565b92915050565b5f60208284031215610447576104466103d4565b5b5f6104548482850161041e565b91505092915050565b5f8115159050919050565b6104718161045d565b82525050565b5f60208201905061048a5f830184610468565b92915050565b5f819050919050565b6104a281610490565b82525050565b5f6020820190506104bb5f830184610499565b92915050565b5f82825260208201905092915050565b7f4e6f7420696e2077686974656c697374000000000000000000000000000000005f82015250565b5f6105056010836104c1565b9150610510826104d1565b602082019050919050565b5f6020820190508181035f830152610532816104f9565b9050919050565b7f416c726561647920696e2077686974656c6973740000000000000000000000005f82015250565b5f61056d6014836104c1565b915061057882610539565b602082019050919050565b5f6020820190508181035f83015261059a81610561565b9050919050565b7f4e487b71000000000000000000000000000000000000000000000000000000005f52601160045260245ffd5b5f6105d882610490565b91506105e383610490565b92508282039050818111156105fb576105fa6105a1565b5b92915050565b7f4e487b71000000000000000000000000000000000000000000000000000000005f52603260045260245ffd5b7f4e487b71000000000000000000000000000000000000000000000000000000005f52603160045260245ffdfea264697066735822122054bfefb0faac2a8bb9659ac9b03b31dc022f15976f58f7754a07f56c7280990a64736f6c634300081e0033",
			"opcodes": "PUSH1 0x80 PUSH1 0x40 MSTORE CALLVALUE DUP1 ISZERO PUSH1 0xE JUMPI PUSH0 PUSH0 REVERT JUMPDEST POP PUSH2 0x691 DUP1 PUSH2 0x1C PUSH0 CODECOPY PUSH0 RETURN INVALID PUSH1 0x80 PUSH1 0x40 MSTORE CALLVALUE DUP1 ISZERO PUSH2 0xF JUMPI PUSH0 PUSH0 REVERT JUMPDEST POP PUSH1 0x4 CALLDATASIZE LT PUSH2 0x4A JUMPI PUSH0 CALLDATALOAD PUSH1 0xE0 SHR DUP1 PUSH4 0x3AF32ABF EQ PUSH2 0x4E JUMPI DUP1 PUSH4 0x8AB1D681 EQ PUSH2 0x7E JUMPI DUP1 PUSH4 0x99DB89B5 EQ PUSH2 0x9A JUMPI DUP1 PUSH4 0xE43252D7 EQ PUSH2 0xB8 JUMPI JUMPDEST PUSH0 PUSH0 REVERT JUMPDEST PUSH2 0x68 PUSH1 0x4 DUP1 CALLDATASIZE SUB DUP2 ADD SWAP1 PUSH2 0x63 SWAP2 SWAP1 PUSH2 0x432 JUMP JUMPDEST PUSH2 0xD4 JUMP JUMPDEST PUSH1 0x40 MLOAD PUSH2 0x75 SWAP2 SWAP1 PUSH2 0x477 JUMP JUMPDEST PUSH1 0x40 MLOAD DUP1 SWAP2 SUB SWAP1 RETURN JUMPDEST PUSH2 0x98 PUSH1 0x4 DUP1 CALLDATASIZE SUB DUP2 ADD SWAP1 PUSH2 0x93 SWAP2 SWAP1 PUSH2 0x432 JUMP JUMPDEST PUSH2 0xEF JUMP JUMPDEST STOP JUMPDEST PUSH2 0xA2 PUSH2 0x144 JUMP JUMPDEST PUSH1 0x40 MLOAD PUSH2 0xAF SWAP2 SWAP1 PUSH2 0x4A8 JUMP JUMPDEST PUSH1 0x40 MLOAD DUP1 SWAP2 SUB SWAP1 RETURN JUMPDEST PUSH2 0xD2 PUSH1 0x4 DUP1 CALLDATASIZE SUB DUP2 ADD SWAP1 PUSH2 0xCD SWAP2 SWAP1 PUSH2 0x432 JUMP JUMPDEST PUSH2 0x153 JUMP JUMPDEST STOP JUMPDEST PUSH0 PUSH2 0xE8 DUP3 PUSH0 PUSH2 0x1A8 SWAP1 SWAP2 SWAP1 PUSH4 0xFFFFFFFF AND JUMP JUMPDEST SWAP1 POP SWAP2 SWAP1 POP JUMP JUMPDEST PUSH2 0x102 DUP2 PUSH0 PUSH2 0x1D5 SWAP1 SWAP2 SWAP1 PUSH4 0xFFFFFFFF AND JUMP JUMPDEST PUSH2 0x141 JUMPI PUSH1 0x40 MLOAD PUSH32 0x8C379A000000000000000000000000000000000000000000000000000000000 DUP2 MSTORE PUSH1 0x4 ADD PUSH2 0x138 SWAP1 PUSH2 0x51B JUMP JUMPDEST PUSH1 0x40 MLOAD DUP1 SWAP2 SUB SWAP1 REVERT JUMPDEST POP JUMP JUMPDEST PUSH0 PUSH2 0x14E PUSH0 PUSH2 0x202 JUMP JUMPDEST SWAP1 POP SWAP1 JUMP JUMPDEST PUSH2 0x166 DUP2 PUSH0 PUSH2 0x215 SWAP1 SWAP2 SWAP1 PUSH4 0xFFFFFFFF AND JUMP JUMPDEST PUSH2 0x1A5 JUMPI PUSH1 0x40 MLOAD PUSH32 0x8C379A000000000000000000000000000000000000000000000000000000000 DUP2 MSTORE PUSH1 0x4 ADD PUSH2 0x19C SWAP1 PUSH2 0x583 JUMP JUMPDEST PUSH1 0x40 MLOAD DUP1 SWAP2 SUB SWAP1 REVERT JUMPDEST POP JUMP JUMPDEST PUSH0 PUSH2 0x1CD DUP4 PUSH0 ADD DUP4 PUSH20 0xFFFFFFFFFFFFFFFFFFFFFFFFFFFFFFFFFFFFFFFF AND PUSH0 SHL PUSH2 0x242 JUMP JUMPDEST SWAP1 POP SWAP3 SWAP2 POP POP JUMP JUMPDEST PUSH0 PUSH2 0x1FA DUP4 PUSH0 ADD DUP4 PUSH20 0xFFFFFFFFFFFFFFFFFFFFFFFFFFFFFFFFFFFFFFFF AND PUSH0 SHL PUSH2 0x262 JUMP JUMPDEST SWAP1 POP SWAP3 SWAP2 POP POP JUMP JUMPDEST PUSH0 PUSH2 0x20E DUP3 PUSH0 ADD PUSH2 0x35E JUMP JUMPDEST SWAP1 POP SWAP2 SWAP1 POP JUMP JUMPDEST PUSH0 PUSH2 0x23A DUP4 PUSH0 ADD DUP4 PUSH20 0xFFFFFFFFFFFFFFFFFFFFFFFFFFFFFFFFFFFFFFFF AND PUSH0 SHL PUSH2 0x36D JUMP JUMPDEST SWAP1 POP SWAP3 SWAP2 POP POP JUMP JUMPDEST PUSH0 PUSH0 DUP4 PUSH1 0x1 ADD PUSH0 DUP5 DUP2 MSTORE PUSH1 0x20 ADD SWAP1 DUP2 MSTORE PUSH1 0x20 ADD PUSH0 KECCAK256 SLOAD EQ ISZERO SWAP1 POP SWAP3 SWAP2 POP POP JUMP JUMPDEST PUSH0 PUSH0 DUP4 PUSH1 0x1 ADD PUSH0 DUP5 DUP2 MSTORE PUSH1 0x20 ADD SWAP1 DUP2 MSTORE PUSH1 0x20 ADD PUSH0 KECCAK256 SLOAD SWAP1 POP PUSH0 DUP2 EQ PUSH2 0x353 JUMPI PUSH0 PUSH1 0x1 DUP3 PUSH2 0x28F SWAP2 SWAP1 PUSH2 0x5CE JUMP JUMPDEST SWAP1 POP PUSH0 PUSH1 0x1 DUP7 PUSH0 ADD DUP1 SLOAD SWAP1 POP PUSH2 0x2A5 SWAP2 SWAP1 PUSH2 0x5CE JUMP JUMPDEST SWAP1 POP DUP1 DUP3 EQ PUSH2 0x30B JUMPI PUSH0 DUP7 PUSH0 ADD DUP3 DUP2 SLOAD DUP2 LT PUSH2 0x2C4 JUMPI PUSH2 0x2C3 PUSH2 0x601 JUMP JUMPDEST JUMPDEST SWAP1 PUSH0 MSTORE PUSH1 0x20 PUSH0 KECCAK256 ADD SLOAD SWAP1 POP DUP1 DUP8 PUSH0 ADD DUP5 DUP2 SLOAD DUP2 LT PUSH2 0x2E5 JUMPI PUSH2 0x2E4 PUSH2 0x601 JUMP JUMPDEST JUMPDEST SWAP1 PUSH0 MSTORE PUSH1 0x20 PUSH0 KECCAK256 ADD DUP2 SWAP1 SSTORE POP DUP4 DUP8 PUSH1 0x1 ADD PUSH0 DUP4 DUP2 MSTORE PUSH1 0x20 ADD SWAP1 DUP2 MSTORE PUSH1 0x20 ADD PUSH0 KECCAK256 DUP2 SWAP1 SSTORE POP POP JUMPDEST DUP6 PUSH0 ADD DUP1 SLOAD DUP1 PUSH2 0x31E JUMPI PUSH2 0x31D PUSH2 0x62E JUMP JUMPDEST JUMPDEST PUSH1 0x1 SWAP1 SUB DUP2 DUP2 SWAP1 PUSH0 MSTORE PUSH1 0x20 PUSH0 KECCAK256 ADD PUSH0 SWAP1 SSTORE SWAP1 SSTORE DUP6 PUSH1 0x1 ADD PUSH0 DUP7 DUP2 MSTORE PUSH1 0x20 ADD SWAP1 DUP2 MSTORE PUSH1 0x20 ADD PUSH0 KECCAK256 PUSH0 SWAP1 SSTORE PUSH1 0x1 SWAP4 POP POP POP POP PUSH2 0x358 JUMP JUMPDEST PUSH0 SWAP2 POP POP JUMPDEST SWAP3 SWAP2 POP POP JUMP JUMPDEST PUSH0 DUP2 PUSH0 ADD DUP1 SLOAD SWAP1 POP SWAP1 POP SWAP2 SWAP1 POP JUMP JUMPDEST PUSH0 PUSH2 0x378 DUP4 DUP4 PUSH2 0x242 JUMP JUMPDEST PUSH2 0x3CA JUMPI DUP3 PUSH0 ADD DUP3 SWAP1 DUP1 PUSH1 0x1 DUP2 SLOAD ADD DUP1 DUP3 SSTORE DUP1 SWAP2 POP POP PUSH1 0x1 SWAP1 SUB SWAP1 PUSH0 MSTORE PUSH1 0x20 PUSH0 KECCAK256 ADD PUSH0 SWAP1 SWAP2 SWAP1 SWAP2 SWAP1 SWAP2 POP SSTORE DUP3 PUSH0 ADD DUP1 SLOAD SWAP1 POP DUP4 PUSH1 0x1 ADD PUSH0 DUP5 DUP2 MSTORE PUSH1 0x20 ADD SWAP1 DUP2 MSTORE PUSH1 0x20 ADD PUSH0 KECCAK256 DUP2 SWAP1 SSTORE POP PUSH1 0x1 SWAP1 POP PUSH2 0x3CE JUMP JUMPDEST PUSH0 SWAP1 POP JUMPDEST SWAP3 SWAP2 POP POP JUMP JUMPDEST PUSH0 PUSH0 REVERT JUMPDEST PUSH0 PUSH20 0xFFFFFFFFFFFFFFFFFFFFFFFFFFFFFFFFFFFFFFFF DUP3 AND SWAP1 POP SWAP2 SWAP1 POP JUMP JUMPDEST PUSH0 PUSH2 0x401 DUP3 PUSH2 0x3D8 JUMP JUMPDEST SWAP1 POP SWAP2 SWAP1 POP JUMP JUMPDEST PUSH2 0x411 DUP2 PUSH2 0x3F7 JUMP JUMPDEST DUP2 EQ PUSH2 0x41B JUMPI PUSH0 PUSH0 REVERT JUMPDEST POP JUMP JUMPDEST PUSH0 DUP2 CALLDATALOAD SWAP1 POP PUSH2 0x42C DUP2 PUSH2 0x408 JUMP JUMPDEST SWAP3 SWAP2 POP POP JUMP JUMPDEST PUSH0 PUSH1 0x20 DUP3 DUP5 SUB SLT ISZERO PUSH2 0x447 JUMPI PUSH2 0x446 PUSH2 0x3D4 JUMP JUMPDEST JUMPDEST PUSH0 PUSH2 0x454 DUP5 DUP3 DUP6 ADD PUSH2 0x41E JUMP JUMPDEST SWAP2 POP POP SWAP3 SWAP2 POP POP JUMP JUMPDEST PUSH0 DUP2 ISZERO ISZERO SWAP1 POP SWAP2 SWAP1 POP JUMP JUMPDEST PUSH2 0x471 DUP2 PUSH2 0x45D JUMP JUMPDEST DUP3 MSTORE POP POP JUMP JUMPDEST PUSH0 PUSH1 0x20 DUP3 ADD SWAP1 POP PUSH2 0x48A PUSH0 DUP4 ADD DUP5 PUSH2 0x468 JUMP JUMPDEST SWAP3 SWAP2 POP POP JUMP JUMPDEST PUSH0 DUP2 SWAP1 POP SWAP2 SWAP1 POP JUMP JUMPDEST PUSH2 0x4A2 DUP2 PUSH2 0x490 JUMP JUMPDEST DUP3 MSTORE POP POP JUMP JUMPDEST PUSH0 PUSH1 0x20 DUP3 ADD SWAP1 POP PUSH2 0x4BB PUSH0 DUP4 ADD DUP5 PUSH2 0x499 JUMP JUMPDEST SWAP3 SWAP2 POP POP JUMP JUMPDEST PUSH0 DUP3 DUP3 MSTORE PUSH1 0x20 DUP3 ADD SWAP1 POP SWAP3 SWAP2 POP POP JUMP JUMPDEST PUSH32 0x4E6F7420696E2077686974656C69737400000000000000000000000000000000 PUSH0 DUP3 ADD MSTORE POP JUMP JUMPDEST PUSH0 PUSH2 0x505 PUSH1 0x10 DUP4 PUSH2 0x4C1 JUMP JUMPDEST SWAP2 POP PUSH2 0x510 DUP3 PUSH2 0x4D1 JUMP JUMPDEST PUSH1 0x20 DUP3 ADD SWAP1 POP SWAP2 SWAP1 POP JUMP JUMPDEST PUSH0 PUSH1 0x20 DUP3 ADD SWAP1 POP DUP2 DUP2 SUB PUSH0 DUP4 ADD MSTORE PUSH2 0x532 DUP2 PUSH2 0x4F9 JUMP JUMPDEST SWAP1 POP SWAP2 SWAP1 POP JUMP JUMPDEST PUSH32 0x416C726561647920696E2077686974656C697374000000000000000000000000 PUSH0 DUP3 ADD MSTORE POP JUMP JUMPDEST PUSH0 PUSH2 0x56D PUSH1 0x14 DUP4 PUSH2 0x4C1 JUMP JUMPDEST SWAP2 POP PUSH2 0x578 DUP3 PUSH2 0x539 JUMP JUMPDEST PUSH1 0x20 DUP3 ADD SWAP1 POP SWAP2 SWAP1 POP JUMP JUMPDEST PUSH0 PUSH1 0x20 DUP3 ADD SWAP1 POP DUP2 DUP2 SUB PUSH0 DUP4 ADD MSTORE PUSH2 0x59A DUP2 PUSH2 0x561 JUMP JUMPDEST SWAP1 POP SWAP2 SWAP1 POP JUMP JUMPDEST PUSH32 0x4E487B7100000000000000000000000000000000000000000000000000000000 PUSH0 MSTORE PUSH1 0x11 PUSH1 0x4 MSTORE PUSH1 0x24 PUSH0 REVERT JUMPDEST PUSH0 PUSH2 0x5D8 DUP3 PUSH2 0x490 JUMP JUMPDEST SWAP2 POP PUSH2 0x5E3 DUP4 PUSH2 0x490 JUMP JUMPDEST SWAP3 POP DUP3 DUP3 SUB SWAP1 POP DUP2 DUP2 GT ISZERO PUSH2 0x5FB JUMPI PUSH2 0x5FA PUSH2 0x5A1 JUMP JUMPDEST JUMPDEST SWAP3 SWAP2 POP POP JUMP JUMPDEST PUSH32 0x4E487B7100000000000000000000000000000000000000000000000000000000 PUSH0 MSTORE PUSH1 0x32 PUSH1 0x4 MSTORE PUSH1 0x24 PUSH0 REVERT JUMPDEST PUSH32 0x4E487B7100000000000000000000000000000000000000000000000000000000 PUSH0 MSTORE PUSH1 0x31 PUSH1 0x4 MSTORE PUSH1 0x24 PUSH0 REVERT INVALID LOG2 PUSH5 0x6970667358 0x22 SLT KECCAK256 SLOAD 0xBF 0xEF 0xB0 STATICCALL 0xAC 0x2A DUP12 0xB9 PUSH6 0x9AC9B03B31DC MUL 0x2F ISZERO SWAP8 PUSH16 0x58F7754A07F56C7280990A64736F6C63 NUMBER STOP ADDMOD 0x1E STOP CALLER "
		},
		"gasEstimates": {
			"creation": {
				"codeDepositCost": "336200",
				"executionCost": "372",
				"totalCost": "336572"
			},
			"external": {
				"addToWhitelist(address)": "infinite",
				"getWhitelistSize()": "2555",
				"isWhitelisted(address)": "infinite",
				"removeFromWhitelist(address)": "infinite"
			}
		},
		"methodIdentifiers": {
			"addToWhitelist(address)": "e43252d7",
			"getWhitelistSize()": "99db89b5",
			"isWhitelisted(address)": "3af32abf",
			"removeFromWhitelist(address)": "8ab1d681"
		}
	},
	"abi": [
		{
			"inputs": [
				{
					"internalType": "address",
					"name": "account",
					"type": "address"
				}
			],
			"name": "addToWhitelist",
			"outputs": [],
			"stateMutability": "nonpayable",
			"type": "function"
		},
		{
			"inputs": [],
			"name": "getWhitelistSize",
			"outputs": [
				{
					"internalType": "uint256",
					"name": "",
					"type": "uint256"
				}
			],
			"stateMutability": "view",
			"type": "function"
		},
		{
			"inputs": [
				{
					"internalType": "address",
					"name": "account",
					"type": "address"
				}
			],
			"name": "isWhitelisted",
			"outputs": [
				{
					"internalType": "bool",
					"name": "",
					"type": "bool"
				}
			],
			"stateMutability": "view",
			"type": "function"
		},
		{
			"inputs": [
				{
					"internalType": "address",
					"name": "account",
					"type": "address"
				}
			],
			"name": "removeFromWhitelist",
			"outputs": [],
			"stateMutability": "nonpayable",
			"type": "function"
		}
	]
}